:1000000000000420B11E0000E91E0000EB1E0000ED
:10001000ED1E0000EF1E0000F11E000000000000B9
:10002000000000000000000000000000F31E0000BF
:10003000F51E000000000000F71E0000F91E000081
:1000400079400000FB1E0000FB1E0000FB1E0000AC
:10005000FB1E0000FB1E0000FB1E0000FB1E00003C
:10006000FB1E0000FB1E0000FB1E0000FB1E00002C
:10007000FB1E000009420000FB1E0000FB1E0000EA
:10008000FB1E0000FB1E0000FB1E0000FB1E00000C
:10009000FB1E0000FB1E0000FB1E0000FB1E0000FC
:1000A000FB1E0000FB1E0000FB1E0000FB1E0000EC
:1000B000FB1E0000FB1E000000000000000000000E
:1000C000FB1E0000FB1E0000FB1E0000FB1E0000CC
:1000D000FB1E0000FB1E0000FB1E0000FB1E0000BC
:1000E000FB1E0000FB1E0000FB1E000000000000C5
:1000F00000000000FB1E000000000000FB1E0000CE
:1001000010B5054C237833B9044B13B10448AFF351
:1001100000800123237010BDB80300200000000000
:10012000E45B000008B5034B1BB103490348AFF380
:10013000008008BD00000000BC030020E45B00005C
:10014000154B002B08BF134B9D46A3F5803A0021A9
:100150008B460F461348144A121A04F0A9FD0F4BA0
:10016000002B00D098470E4B002B00D09847002062
:10017000002104000D000D48002802D00C4801F0B9
:10018000ADF804F0C3FC2000290001F07DFA01F075
:10019000A2F800BF000008000000042000000000DA
:1001A00041160000B8030020D0080020DD12000036
:1001B0000000000070B5074C25684DB9282001F0FB
:1001C00027FA4FF480120646294601F053FE2660B6
:1001D000206870BDD803002038B50C4D2A787AB954
:1001E0000B4C236813B9FFF7E5FF2060206800B9C6
:1001F000FEE703689B68984720B901232B7038BD40
:100200000020FCE76FF4FD70F9E700BFD403002085
:10021000D803002070B50B4D2A7872B10A4C2068C3
:100220000368DB6898470646206810B103685B687E
:100230009847002323602B700EB9002070BD6FF427
:10024000FE70FBE7D4030020D8030020094B37B52C
:100250000546186800B9FEE700230468CDE90023CD
:100260000A4664692946A047002818BF6FF4C87081
:1002700003B030BDD8030020054B10B50446186804
:1002800000B9FEE703685B6A98472060002010BD54
:10029000D8030020054B10B50446186800B9FEE7E6
:1002A00003689B6A98472060002010BDD803002097
:1002B0007047000038B5064D2C683CB1E06F04F083
:1002C000B9FC204604F0B6FC00232B6038BD00BF0B
:1002D000DC0300200368024603B9FEE7024B006816
:1002E000516803C3704700BFE0030020094B1B683F
:1002F00007B553B94FF4F0234FF408200093FFF7EC
:10030000D7FF01906846FFF7E5FF024803B05DF8AC
:1003100004FB00BFE00300202DE9F047DFF830A127
:10032000DAF8004080460D46E06F0968002313703C
:1003300017460144226F04F093FC226FE36F1344CD
:10034000C8F80030626F63689B1AA26E9A4228BF99
:100350001A462A6022B94FF000094846BDE8F087E6
:10036000E36EA66D013B1344B3FBF6F303FB066695
:10037000236E06EB0309FFF7B9FF4468FFF7B6FFEA
:1003800003681C44A1455FD8DAF80030D8F80000B3
:10039000196E3246FFF75AFF81460028DDD1DAF8A0
:1003A000004094F8313003F00303022B11D1D8F848
:1003B00000301A46591C32F8020BC8F800202A688F
:1003C000134401334A468B4239D182421CBF012378
:1003D0003B70236E1E443B782666002BBBD12A68F7
:1003E000636FA16F134463672A68B2FBF1F301FBEB
:1003F000132313B9236F002BADD0E06ED8F8001093
:10040000081A04F03BFCE36F226FC8F800302B6839
:1004100013442B60A26E934208D3A16FB3FBF1F299
:1004200001FB123323672A68D31A2B60A36F2A6853
:10043000013AB2FBF3F202FB03332B608DE711F8B4
:1004400001CF624492B2BEE76FF4C87985E700BF7E
:10045000DC0300202DE9F0431324B4FBF1F404FB8A
:100460000114142C87B081461746984607D92046B8
:1004700004F0D8FB064618B96FF009052DE001AE6F
:100480002246D9F800103046FFF7E0FE054640BB93
:10049000631EB3FBF7F303FB0777D9F800301F4463
:1004A000C9F800704346374606F1100C3A4603CAB5
:1004B000624518605960174603F10803F6D11068C9
:1004C0001860D8F80010084A084B914218BF1D4622
:1004D000142C02D9304604F0ADFB284607B0BDE825
:1004E000F0836FF4C875F3E7014ED5FE06FEFFFFFB
:1004F0002DE9F8435725B5FBF1F606FB01168146B9
:1005000030461446984604F08DFB0746D8B1324673
:10051000D9F80010FFF79AFEB5FBF4F5D9F80030D2
:1005200005FB04441C44C9F80040044628B942466F
:100530005821384600F0BCF90446384604F07AFBEE
:100540002046BDE8F8836FF00904F9E72DE9F0478C
:10055000DFF82491D9F800A088B0064688461546F1
:100560004C46BAF1000F59D1802004F05BFB0746DE
:10057000C9F8000020B96FF0090008B0BDE8F087A5
:100580008022514604F094FB07F15800FFF774FEF7
:10059000002861D1D9F800005C30FFF77BFE00280D
:1005A0005AD1FFF7A3FED9F8001043680846D1E9F5
:1005B000161240F8603F03ABFFF74CFF00284BD109
:1005C000404604F036FD4146024604A804F039FDD9
:1005D000002840D1D9F80030D3E9161203F16000A9
:1005E000FFF786FF002837D1D9F8003093F8311093
:1005F000C80736D4002E36D18A0718BF588E9A6D98
:1006000008BF802001F002010138B0FBF2F000FBCE
:100610000222521A9A661A6ED9665A662468636E66
:10062000236600239D4208BF01256367E06FA5672D
:1006300004F000FBD4E91A10A36FB1FBF3F203FB43
:100640001212084402B1184404F0ECFAE06768B9E9
:100650006FF0090000E006480190FFF72BFE0198BB
:100660008BE70448F8E76FF4CA70F5E7002084E7E9
:10067000C8FEFFFF04FEFFFFDC0300202DE9F0436E
:100680008DB01746149D002281460E469846019271
:10069000039205B9FEE739463046FFF757FF044697
:1006A000002831D1B9F1000F39D003A800F0C6F805
:1006B000044648BB0DF1030201A902A8FFF72CFE76
:1006C000044608BB9DF80330B3B1019B002BF1D168
:1006D00004A9039800F0D6F80446A8B903A800F0CE
:1006E000DBF82D4B19682022103104A804F0AAFA77
:1006F000A8B16FF0650407E0DDE90121039800F07F
:10070000B7F804460028E0D0039B13B103A800F01B
:10071000C3F8FFF7CFFD20460DB0BDE8F083424699
:1007200039463046FFF712FF04460028ECD11A4E36
:100730000146182204A804F0BBFA3368089304A801
:10074000A84704460028DFD10DF1030201A902A841
:10075000FFF7E2FD04460028D6D19DF803307BB9AF
:1007600001238DF81030019B0593029B079304A889
:10077000A84704460028C7D1069B019A1344069354
:100780003368069A5B689A42DED302238DF81030F4
:1007900004A8A8470446B7E7DC0300202DE9F04F82
:1007A0001FFA80FA000C002640EA014017460A0AA8
:1007B000002120F07F44B14240F2E73008BF904270
:1007C00085B0B3463546334631D3B14208BFA04267
:1007D0002DD3B14208BF5045A6F5FF7628BF5E462F
:1007E0004FF00009994540F2E73808BF90453CBFFB
:1007F00042464B46D94508BFD0454FF0000940F26C
:10080000E7383CBFC246CB46A94508BFA0453CBF20
:1008100040F2E7340025CDE902ABCDE900450549BA
:10082000384601F03DF9304605B0BDE8F08F024E84
:10083000D6E700BFD455000002FEFFFF70B50026CA
:10084000066004466C2004F0EDF9054640B100F066
:100850008BF93146284600F091F920B9256070BD2A
:100860006FF00900FBE70148F9E700BF6CFEFFFFEE
:1008700008B500F07FFA024B002818BF184608BDE3
:100880006CFEFFFF08B500F0B2FA024B002818BF5B
:10089000184608BD6CFEFFFF10B50446006830B175
:1008A00000F066F9206804F0C5F90023236010BD4C
:1008B00008B5134601465822184604F0D1F9044BF6
:1008C00002689A4214BF6FF4FE70002008BD00BF9A
:1008D000A353025C03681BB903680BB9031D0360D3
:1008E00018467047036801221B69002118470368F6
:1008F00000221B69114618476FF01500704701F080
:10090000C9BC01F0B7BC01F0C7BC01F0ABBC01F041
:10091000C5BC000038B505460A48FFF7DBFF28468E
:1009200001F026FC044650B9284601F0B3FC00F063
:100930007FFE68600348FFF7CDFF204638BD4FF0CB
:10094000FF34F7E7E803002038B505460948FFF70C
:10095000C1FF284601F02AFC003018BF01204442A4
:10096000686808B100F068FE0248FFF7B3FF204650
:1009700038BD00BFE80300202DE9F0410A4C0F46C6
:100980001646054698462046FFF7A4FF43463A46DA
:100990003146284600F0AEFA05462046FFF79AFF9A
:1009A0002846BDE8F08100BFE80300202DE9F74F9D
:1009B000154699460746884601F06CFC06463846BF
:1009C00001F050FC8246384601F066FC834638460A
:1009D00001F064FCB5FBF6F306FB13540190002C08
:1009E0005BD1B8F1000F58D009EB0503DA44534549
:1009F00053D82B48FFF76EFF2346B9F1000F43D0C1
:100A0000002B3FD12946384601F034FCB5FBF0F409
:100A100000FB1454041B4C4528BF4C4618F0030F30
:100A200001D1B44226D2B44228BF344622464146C0
:100A3000786804F015F9B44205D278680199321B40
:100A4000204404F035F97B680093B3464FF0100A58
:100A50005B46009A2946384601F0CCFB034620B19C
:100A6000BAF1010AF4D14FF0FF33A9EB0409254490
:100A7000A044C2E7B4FBF6F406FB04FB5C46CDF8E9
:100A80000080E3E74FF0FF3305480093FFF722FFB4
:100A9000009B184603B0BDE8F08F4FF0FF33F8E736
:100AA000E80300202DE9F0410D461646074601F007
:100AB000D9FB0446384601F0EFFB2044AC19A042B4
:100AC00004D24FF0FF342046BDE8F08119D8154814
:100AD000FFF700FF00240EB3F4B94FF010082946C9
:100AE000384601F065FB044620B1B8F10108F6D1A3
:100AF0004FF0FF342946384601F0BCFB361A054456
:100B0000E9E72146384601F0B5FBB4FBF0F303FBFF
:100B100010400028D5D1DAE74FF0FF340148FFF745
:100B2000D9FED0E7E80300200020704700290CBF61
:100B30006FF0180000207047012070476FF015001B
:100B400070476FF01500704784B001A880E80E0070
:100B500004B070470A4619B1024B00211B681847C0
:100B6000704700BF040200206C22002104F0A0B8EE
:100B700010B16C21FFF7EEBF704700000023C0E901
:100B80000033C1B9194A1A4BDFF88CC0C0E90223FF
:100B9000184B194AC0E904C3184BC0E90623184B87
:100BA000036203F17453A3F52303A3F69243436254
:100BB000816600207047134B134ADFF860C0C0E91C
:100BC000022303F1794303F5740303F50163036121
:100BD0000E4BC0E905C303F1D14303F5C01303F580
:100BE0001E63C3610A4B03620A4BE0E767E6096ACA
:100BF00085AE67BB3AF54FA57F520E518C68059BB9
:100C0000ABD9831F07D57C36D89E05C1310BC0FFF9
:100C1000A78FF964A44FFABE72F36E3C39590EF7F0
:100C20002DE9F04FD1B000F10803019300F1280342
:100C300008AA0693019B104653F8044B40F8044B56
:100C4000069CA342F8D1D3690493D2E9053E0293EE
:100C500093680393D2E9004CD36805931569444B1C
:100C6000079310AE4FF00009B9F10F0F68D84B7819
:100C700091F800A091F802801B0443EA0A6391F8FE
:100C800003A043EA0A0343EA0823029F46F8043B11
:100C90004FEAF52A8AEAB51A8AEA75608EEA070AE7
:100CA0000AEA050A079F8AEA0E0A824457F8040BEB
:100CB000079782440498039FCDF810E053440344FF
:100CC000059805971844824644EA0C084FEA7430A8
:100CD00080EAB40008EA070804EA0C0B80EAB45082
:100CE00048EA0B0809F101098044B9F1400F434477
:100CF00001F104011BD10299CDF83CE0CDE90D5181
:100D0000CDE90834CDF830A0CDF828C00B97019B71
:100D100052F8041B1B680B44019941F8043B069BE5
:100D200001918B42F3D1002051B0BDE8F08FCDF896
:100D30000CC0DDF808E00295A44655461C4693E732
:100D400056F8083C56F83C0C56F8407C4FEAF348FD
:100D500088EA734888EA932856F81C3C4FEAB04B5F
:100D60003B448BEAF01B98448BEAD00343448CE766
:100D7000E45500002DE9F84305460F46144612B924
:100D80000020BDE8F883036803F03F06D318036032
:100D900022BF436801334360A6B1C6F140094A450A
:100DA00010D300F128084A4608EB060003F058FF6C
:100DB00041462846FFF734FF0028E2D134444F442F
:100DC000403C0646274405E02846FFF729FF002857
:100DD000D7D1403C3F2CA7EB0401F5D8002CCFD055
:100DE00005F128002246304403F03AFFC8E70368C3
:100DF00003F03F035A1C034470B5382A0D4600F136
:100E000028064FF08001044683F8281006EB020004
:100E100061D8C2F13802002103F04AFFD4E9003161
:100E20005A0F42EAC102DB0012BA1BBA226663669D
:100E300031462046FFF7F4FE00284BD1E37A2B70B1
:100E400063896B70A3681B0AAB70A368EB70E37BCC
:100E50002B71E3896B71E3681B0AAB71E368EB717B
:100E6000E37C2B72638A6B7223691B0AAB72236962
:100E7000EB72E37D2B73E38A6B7363691B0AAB73BD
:100E80006369EB73E37E2B74638B6B74A3691B0A3A
:100E9000AB74A369EB74E37F2B75E38B6B75E3692C
:100EA0001B0AAB75E369EB7594F823302B76638CE2
:100EB0006B76236A1B0AAB76236AEB76A36E4BB97B
:100EC00094F827302B77E38C6B77636A1B0AAB7738
:100ED000636AEB7770BD0021C2F1400203F0E8FEC7
:100EE00031462046FFF79CFE0028F3D10146382208
:100EF000304691E708B510461A4603F0B1FE0020CF
:100F000008BD000038B50D46044690F900300121B7
:100F1000A2B11F2B86BF03F01F030E4A4FF0A04261
:100F200001FA03F3C2F808352046012101F0F8FA6E
:100F300029462046BDE8384001F0DEBA1F2B86BFA7
:100F400003F01F03034A4FF0A04201FA03F3C2F873
:100F50000C35E9E70003005070B50E46044615460F
:100F600001F0B2FA013606D02A4620460021BDE83B
:100F70007040FFF7C7BF70BD0022FFF7EDBF91F9CA
:100F80000C2091F9041001F0C3BD03F0E7BE03F09B
:100F900097BE0000F0B572B6224A234F00231360BB
:100FA0004FF0E0224FF0FF36516801F00F010131A0
:100FB0001D469A0002F1604202F561424FEAC30CFD
:100FC000C2F88060C2F88061002202EB0C043C444D
:100FD0000132082A84F80053F7D101339942E8DC42
:100FE000124B4FF020625A6040F2FA529860DA6079
:100FF00000221D6111469C1801320C2A2176FAD17B
:101000004FF0FF3259629A62094ADA621F221A636C
:10101000D0E90031002282F314889D4682F31088C3
:101020000847F0BD10E000E000E100E000ED00E066
:10103000020000C003460122D3E84F0FC3E8412F4E
:10104000C0B20029F8D17047034653E8000F40189A
:1010500043E80002002AF8D17047034653E8000F26
:10106000401A43E80002002AF8D17047D0E84F3F09
:10107000C0E8421FD8B27047EFF31080C04300F0C1
:1010800001007047EFF30580003018BF0120704762
:1010900008B501F05DF8024A13680133136008BD1A
:1010A000F0030020044A136823B1013B13600BB91D
:1010B00001F056B8704700BFF003002008B50B4898
:1010C000FFF7B8FF28B1FFF7E3FFBFF34F8F20BF53
:1010D000FDE7FFF7D7FF08B103F08EFAFFF7CCFF6B
:1010E0000028F9D0012000F0F6F800BF30040020FD
:1010F00070470000F0B5254D8FB035EA200528BFB8
:1011000005460E4617460021302202A803F0D0FD06
:101110001F4B01952B44012B01AC039605D91D4BA8
:101120009D4202D0033B9D4229D1F36B0293736B26
:101130000893FFF7ADFF184A13680133012B1360C2
:1011400009D126460FCE154D0FC50FCE0FC50FCEB8
:101150000FC533682B600FCC114D0FC50FCC0FC5D9
:101160000FCC0FC523682B600E4B1B68A5F1300018
:1011700043B19847FFF796FF00200FB0F0BD0297EC
:101180000894D6E7FFF7B4FFF4E700BF0101FF8042
:10119000C2FE007F4001FF80F4030020FC0300201A
:1011A00034040020F80300200020704708B50446EE
:1011B0000121064876461546FFF758FF20B932460A
:1011C00029462046FFF796FFFFF778FFA808002082
:1011D0006FF01C0070476FF01500704701207047DA
:1011E0000020704770470000F8B5074E15460C46C2
:1011F0008F18BC4205D014F8011B304601F0F2FDF7
:10120000F7E72846F8BD00BFC006002038B58DB20C
:1012100015F0010405D0084801F010FE041C18BFA9
:101220000124EB0605D5044801F01CFE08B144F08A
:101230001004204638BD00BFC006002010B504468B
:1012400003F0F8FC204610BD10B50C462AB1044846
:1012500001F096FD2070012010BD1046FCE700BF94
:10126000C006002038B5084B0360084B1B680446D5
:10127000154633B90648FFF782FE2946044801F0B7
:1012800011FD204638BD00BFEC5600002C070020A1
:10129000C00600200020704700207047074A084918
:1012A00013681844884289BF064B10600C224FF027
:1012B000FF308CBF1A601846704700BF080300203B
:1012C00000F00320C808002008B508B103F094F925
:1012D000FEE70120704708B5FFF7F6FF01207047D1
:1012E0007047704708B5FFF7FBFF08BD08B5FFF76B
:1012F000F8FF08BD037803F00303012B09D003783E
:1013000003F00302012A04D043F00203037001201A
:10131000704700207047037823F0030343F0010374
:10132000037070473F2870B504462EDC184D55F801
:1013300020305A1C13D1022811DCFFF7ADFF034601
:1013400058B92046FFF7A6FF034630B9114E33784F
:10135000BFF35B8FDB0704D50F4B45F824301846ED
:1013600070BD3046FFF7C6FF0028F5D04FF4E132DC
:101370000A490948FFF776FF3046FFF7CCFF084AD5
:1013800008490548FFF7A5FFE6E70023E7E700BFA8
:101390000802002068040020EC04002034570000FC
:1013A00000020020E511000038B50546FFF7BAFF3E
:1013B0000B4B002443F8254030B903F0ABF9092367
:1013C00003604FF0FF3038BD03685B699847051E26
:1013D00004DA03F09FF96D420560F2E72046F2E778
:1013E00008020020FFF7E0BF38B50C461546FFF7AE
:1013F00099FF38B903F08EF9092303604FF0FF34E9
:10140000204638BD03682146DB682A469847041EFB
:10141000F6DA03F07FF964420460EFE738B50C4672
:101420001546FFF77FFF38B903F074F9092303600D
:101430004FF0FF34204638BD036821469B682A469A
:101440009847041EF6DA03F065F964420460EFE79A
:1014500010B5FFF767FF044628B903F05BF90923CD
:101460000360204610BD0368DB699847041EF8DA64
:1014700003F050F9644204600024F2E72DE9F84FCC
:10148000B2F1000906460F4608DA03F043F91623C5
:1014900003604FF0FF342046BDE8F88FFFF7D8FF18
:1014A000044658B31E4A002512F806A02C46904662
:1014B0004FF00D0BA94521DD7A5D0A2A1AD1BAF148
:1014C0000D0F17D0AC420BDA2A1B39193046FFF743
:1014D0008BFF0028DDDB0444A542DCDC08F806A015
:1014E000012210493046FFF77FFF0028D1DBD2D020
:1014F00008F806B017F805A00135DBE7A145CADDFD
:10150000A9EB040239193046FFF76EFF0028C0DB53
:1015100024181FBF3F19024B17F8012C9A55BAE740
:10152000AC040020C35A0000FFF792BF73B5151E2C
:1015300004460E4606DA03F0EDF8162303604FF07A
:10154000FF3017E0FFF784FFE8B1124D01220DF1E3
:1015500007012046FFF762FF0028F0DB0AD09DF864
:1015600007300D2B08D12A5D0A2A2B55EED00A230D
:101570003370012002B070BD0A2B02D12A5D0D2A02
:10158000F3E72B55F4E72A4631462046FFF746FF9E
:10159000F0E700BF6C04002038B50C461546FFF795
:1015A000C1FE38B903F0B6F8092303604FF0FF34E9
:1015B000204638BD036821461B692A469847041E09
:1015C000F6DA03F0A7F864420460EFE7FFF7E4BF40
:1015D00038B50D46FFF7A6FE044630B903F09AF879
:1015E000092303604FF0FF3038BD0368DB6998477B
:1015F000002814BF4FF400534FF400436B6023687E
:1016000020469B6A984728610020EDE7FFF7E0BF7E
:1016100013B5044603F006FB034628B900900146C3
:1016200022460248FFF7C2FD02B010BD1F01018033
:10163000FFF7EEBF03F0FEBA03F0FCBA7047704745
:1016400008B5094B094A1A60094B9B1A094A1360ED
:10165000094B0A4A1A600A4B9B1A0A4A136000F0A7
:10166000D5FFFFF7ECFF08BDFC04002000F00320CD
:1016700000000420F8040020F4040020D00800201A
:1016800000F00320F004002008B5FFF7D7FFFFF7B4
:101690008BFDBDE8084002F0B1BF70B5144612687A
:1016A000002A0D4604990ADB6FF00046B24206D0CC
:1016B00031B1184603F004FA431C05D1206070BD17
:1016C00010B1AA4238BF8354236801332360F6E780
:1016D0002DE9F74F1D4B1E4E9146DDE90CBA9DF8E2
:1016E0003C200746002A08BF1E46884607250023DF
:1016F000EC00C4F12001A4F120020AFA01F12BFA56
:1017000004F40C432AFA02F21443E4B20BB904B90C
:10171000ADB9220904F00F0403B93AB1B35C0E9AD3
:10172000009241464A463846FFF7B7FF0E9A335DAE
:10173000009241464A463846FFF7AFFF012315F1B4
:10174000FF35D5D203B0BDE8F08F00BF4C57000085
:101750005C5700002DE9F04F89B00DF10808814673
:101760008A469346002118224046DDE91267149DFF
:1017700003F09EFA002456EA070303D1ACB909B07E
:10178000BDE8F08F304639460A22002303F094FD6D
:10179000303208F80420304639460A22002303F08C
:1017A0008BFD013406460F46E5E7013C009518F82D
:1017B00004305A4651464846FFF76FFFDEE7000007
:1017C0002DE9F04F89B01C46002306460D46129FB6
:1017D00007939246AAB1994213DB0CBF012301F192
:1017E000FF3505934FF000091AF809306BB946B17F
:1017F000059B33B9079BAB4295BF059A059BF254F5
:101800007355079809B0BDE8F08F252B40F028816B
:1018100009F101031AF80320203AD2B2102A06D89F
:10182000934921FA02F2D20748BF09F102031AF8DC
:1018300003202A2A51D1013304341AF803102E2927
:101840000AEB03025AD151782A294CD00023049381
:10185000CAF1010C0CEB020312F8011F3039C8B2B7
:10186000092845D91AF80320682A4AD10AEB03024D
:101870005278682A0CBF7221112101F0030202EB99
:10188000030B1AF80B80B8F1640F02D0B8F1690F9E
:1018900067D1822950D1073424F00704F4E80223E9
:1018A000002A73F100019046994650DA00972D23E3
:1018B00007AA29463046FFF7F0FED8F1000869EB89
:1018C0004909CDE90089029707AA29463046FFF762
:1018D00041FF0BF1010987E701331AF80320303A81
:1018E000092AF9D9A9E754F8042B02330492B9E77D
:1018F000049B0A2000FB03130493ABE76FF0004244
:10190000F4E76C2A07D10AEB030252786C2A0CBF69
:1019100082212121B1E76A2A08D07A2A08D0742AC4
:1019200008D04C2A14BF00216121A6E73121A4E789
:101930004121A2E75121A0E7112954F8042B04D03A
:10194000722908BF52B2D317AAE712B2FBE71343BA
:10195000B7D10097302307AA29463046FFF79DFEEE
:10196000B7E7B8F1750F03D008F0DF03582B2ED17D
:1019700082290ED1073424F00704F4E80223B8F1D9
:10198000750F16D152EA0301E3D00297CDE9002387
:101990009AE7512954F8042B09D0722903D0112950
:1019A00003D00023EBE7D2B2FBE792B2F9E7D317FB
:1019B000E5E7A8F1580041424141CDE90271CDE986
:1019C000002307AA29463046FFF782FE81E7B8F1D7
:1019D000630F04D154F8043B0097DBB2BBE7B8F1C6
:1019E000730F16D154F8049B09F1FF3818F8013F22
:1019F000002B3FF46EAF049AA2EB080219EB020F22
:101A00003FF467AF009707AA29463046FFF745FE27
:101A1000ECE7B8F1700F17D154F8048B009730231E
:101A200007AA29463046FFF738FE7823009707AA11
:101A300029463046FFF731FE4FEAE8790123CDE928
:101A40000273CDE90089BCE70097252307AA294640
:101A50003046FFF722FEB8F1250F18BFCB4638E716
:101A6000009707AA29463046FFF717FECB4630E716
:101A7000092801000FB41FB50849096806AB896839
:101A800053F8042B009100206FF000410393FFF7FF
:101A900097FE05B05DF804EB04B070471803002012
:101AA0000EB40FB505AB002153F8042B00916FF075
:101AB00000410393FFF784FE04B05DF804EB03B02C
:101AC00070470020704700207047012000217047B8
:101AD000D0E9060170470000004870476C570000CD
:101AE0002DE9F04F85B09B46DDE90E530446D0E961
:101AF0000489043092460293FEF705FF2168029B99
:101B000003901AEB0506896B20464BEB03078847C9
:101B1000B94208BFB042039A03D2002005B0BDE825
:101B2000F08F18EB0A03009349EB0B030193DDE9F7
:101B30000089B8EB020822685B46116B20465246CA
:101B400069F10009884702460B464046494603F0C2
:101B5000B3FB1343E1D1029B18EB050549EB030BE3
:101B6000236816F1FF32196B204647F1FF3388478F
:101B700002460B462846594603F09EFB13430CBF12
:101B800001200020CAE7F7B50E4690F82010044661
:101B90001746DDE9085C79B10168CDE9005CC96BE5
:101BA000884748B122692B463A443146201D03B08C
:101BB000BDE8F040FEF7E0BE6FF47A6003B0F0BD20
:101BC000F7B50E4690F8201004461746DDE9085C8C
:101BD00079B10168CDE9005C096C884748B1226998
:101BE0002B463A443146201D03B0BDE8F040FEF7D5
:101BF000DDBE6FF47A6003B0F0BDF7B590F8201049
:101C000004461646DDE9085771B10168CDE9005771
:101C1000496C884740B121692A463144201D03B0F0
:101C2000BDE8F040FEF73EBF6FF47A6003B0F0BD50
:101C300008B590F8203023B10430FEF760FE002193
:101C400008BD1846FBE708B590F820301BB10430FA
:101C5000FEF75DFE08BD4FF0FF30FBE72DE9F047D2
:101C60009A4603689B6A15460446DDE9086798476B
:101C700002460B462846514603F01EFB134302D092
:101C80000020BDE8F087236820469B6A98470246FB
:101C90000B463046394603F00FFB1343F0D123685F
:101CA00015EB06089B6B20464AEB07099847494508
:101CB00008BF40452CBF01200020E2E708B590F89E
:101CC00020302BB101690430FEF71BFE002108BD56
:101CD0001846FBE708B590F8203033B101690430AD
:101CE0001144FEF70EFE002108BD1846FBE72DE962
:101CF000F0479A4603685B6A15460446DDE90867C3
:101D0000984702460B462846514603F0D5FA13433E
:101D100002D00020BDE8F087236820465B6A984720
:101D200002460B463046394603F0C6FA1343F0D15B
:101D3000236815EB06089B6B20464AEB070998477A
:101D4000494508BF40452CBF01200020E2E72DE9AE
:101D5000F84F90F82030824603B943620AF1240616
:101D600056E8007F013746E80074002CF8D1012FB7
:101D70000AD10AF104052846FEF7CCFD044630B12D
:101D800039463046FFF769F92046BDE8F88FDAE9B1
:101D90000630DAE9042113EB020840EB010928467A
:101DA000FEF7B3FD83462846FEF7ADFD00215844FB
:101DB000494508BF404506D239463046FFF74DF940
:101DC0006FF47A64E0E7DAE904892846FEF79BFDC0
:101DD0000021894508BF8045EED3DAE90423134387
:101DE00004D12846FEF78FFDCAE90404DAE9062388
:101DF000134312D12846FEF788FD06462846FEF713
:101E000082FDDAE9043287194FF0000141F1000840
:101E1000FB1A68EB0202CAE9063201238AF8203075
:101E2000B2E790F8203010B5044613B943620020A1
:101E300010BD01212430FFF710F90028F7D184F8F4
:101E40002000201DBDE81040FEF77EBD10B5034BFD
:101E500003600446FFF7E5FF204610BD80570000F1
:101E600010B50446FFF7F2FF20462821FFF7E2FBFA
:101E7000204610BD0C4B13B503600023C0E90413CA
:101E80000131C0E90133C0E9062380F82030436204
:101E900000D032B9009300231A4619460348FFF7D1
:101EA00085F902B010BD00BF805700000101FF801E
:101EB0000749084A084B9B1A03DD043BC858D05019
:101EC000FBDC06488047064880470648004700007C
:101ED000F05B000000020020B80300202D1F00006E
:101EE000E125000041010000FEE7FEE7FEE7FEE716
:101EF000FEE7FEE7FEE7FEE7FEE7FEE71030024BF7
:101F000043F82010704700BF00000020054B1B68FD
:101F1000082B01BF044B1868B0FA80F0400918BFC5
:101F200000207047300100103401001008B5FFF7A1
:101F3000EDFF40B14FF080430022C3F80C21C3F8FD
:101F40001021C3F83825FFF7E1FF002846D04FF0F5
:101F50008052714BD2F80414C3F82015D2F808143B
:101F6000C3F82415D2F80C14C3F82815D2F81014AD
:101F7000C3F82C15D2F81414C3F83015D2F818147D
:101F8000C3F83415D2F81C14C3F84015D2F8201445
:101F9000C3F84415D2F82414C3F84815D2F828140D
:101FA000C3F84C15D2F82C14C3F85015D2F83014DD
:101FB000C3F85415D2F83414C3F86015D2F83814A5
:101FC000C3F86415D2F83C14C3F86815D2F840146D
:101FD000C3F86C15D2F84424C3F87025FFF796FFB8
:101FE00010B14E4B4E4A1A60FFF790FF18B14D4B9F
:101FF000FB22C3F81825FFF789FF48B14A494B4B2C
:102000000A681B6822F00F0203F00F0313430B60F2
:10201000FFF77CFF18B1464B4FF400721A60FFF7D0
:1020200075FF48B14FF08043D3F80024D20744BF76
:102030006FF00102C3F800243E4AD2F8883043F41E
:102040007003C2F88830BFF34F8FBFF36F8F4FF02C
:102050001023D3F80022002A03DBD3F80432002B2C
:102060002FDA354B0122C3F80425D3F80024002AC7
:10207000FBD04FF010221221C2F80012D3F8002436
:10208000002AFBD04FF010231222C3F804222A4B5F
:102090001A46D3F800140029FBD00021C3F8041518
:1020A000D2F80034002BFBD0BFF34F8F2149234BD4
:1020B000CA6802F4E0621343CB60BFF34F8F00BFE6
:1020C000FDE71F4B1F4A1A604FF080430122002199
:1020D000C3F81825C3F804119A60D3F80421002A24
:1020E000FBD01949CA6842F08072CA60D3F85C25F7
:1020F00042F48032C3F85C25D3F85C2542F0030239
:10210000C3F85C254FF0A04340F20132C3F84827E2
:102110000E4B00221A6108BD00C000408C560040E2
:102120004881030000F00040E40E00405802001017
:102130004096024000ED00E000E001400400FA0596
:102140000C0300200090D003F0ED00E0000004E05C
:10215000024803780BB100F01BBF7047100300204A
:10216000024B012200201A7000F020BF1003002053
:102170000B4B187810B5002288B10A481A704FF03E
:102180008051C2604C690B6907496343C0E9012271
:10219000036101F0B8FB003018BF0120404210BDC0
:1021A0001103002090030020EC570000002070472E
:1021B0002DE9F0410E4602F07DF8DFF834800B4F38
:1021C0000546002301223146404601F0D3FB044678
:1021D00002F070F8401BB84201D8042CF1D0201C4A
:1021E00018BF01204042BDE8F08100BF3F0D030051
:1021F000900300202DE9FF470E465AB323F0030356
:10220000DFF85880DFF85890171F5D180E24AE4293
:1022100006D1201C18BF0120404204B0BDE8F08761
:1022200057F8043F039302F045F8824600230093D9
:1022300003AA04233146404601F06EFB044602F037
:1022400039F8A0EB0A00484501D8042CEED004363A
:10225000002CDCD04FF0FF30DFE700BF9003002000
:102260003F0D0300024BD3E90330C01A704700BF93
:1022700090030020064BDA688A4205D81A698A4220
:1022800002D95B68186870474FF0FF30704700BF95
:10229000900300200420704700207047FF20704703
:1022A000134930B4D1E90035C0F1200405FA04F433
:1022B000A0F12001C340234325FA01F10B4303F0B1
:1022C0000104002554EA050302460ED0094B195CAF
:1022D000C1F30013890703D51BB930BC01F066BCFC
:1022E0001BB1104630BC01F0AFBD30BC704700BF21
:1022F000F0050020C00500201F288BBF00F01F0341
:1023000003461C4A4FF0A04203F5E07330B452F884
:102310002330194AC3F30143032BD2E90035C0F13E
:10232000200405FA04F4A0F1200223FA00F343EAA2
:10233000040325FA02F243EA020303F001044FF01A
:1023400000050CBF0121022154EA050310D00B4BFC
:1023500001291B5C09D113F0400F09D0084B094A31
:102360001B6852F8200030BC184713F0200FF4E728
:1023700030BC704700030050F8050020C005002065
:1023800000060020000500202DE9F34749490446D6
:102390000D5C0127A4F12006C4F12003C5F3001051
:1023A00007FA06F627FA03F315F0010FC2B246EA60
:1023B000030607FA04F78846A4F1200AC4F12009AD
:1023C0003D4D01D1002A6DD018F804309B072146FD
:1023D00001D5002A4CD00023ADF804308DF806302A
:1023E00003238DF8043018F80430C3F38103D8B206
:1023F000012801D0032801D18DF805304AB32F4AB6
:1024000001A9204601F038FC2D4AD2E90032E34010
:1024100002FA09F943EA090322FA0AFA43EA0A032B
:1024200003F00100002150EA010309D018F804303C
:102430005A0601D49B0603D50121204601F098FCE1
:10244000D5E9002317431E43C5E9007602B0BDE875
:10245000F0871F2C9DF8053086BF1A4A04F01F0133
:102460004FF0A04201F5E0719B0042F82130E7E710
:102470001F2C88BF134BADF8042094BF4FF0A0432E
:1024800004F01F02D3F804358DF8060098BF2246E9
:10249000D34003F0010301A920468DF8053001F077
:1024A00015FBCDE7D5E9002322EA070723EA060654
:1024B000CAE700BFC0050020F0050020F922000097
:1024C000F80500200003005010B5017001310446EA
:1024D0000CD007490620FFF711FD01F0B3FA0549BA
:1024E00094F900208B5C43F001038B5410BD00BFB6
:1024F000B93E0000C005002038B5044600780D46FE
:10250000FFF7CEFE94F90000044B1A5C65F38302DA
:102510001A54C0B2BDE83840FFF736BFC0050020EE
:1025200038B5044600780D46FFF7BAFE94F900006E
:10253000044B1A5C65F341021A54C0B2BDE838403E
:10254000FFF722BFC0050020234B70B500220446D0
:10255000184693F90060751C13D093F90150B5F13A
:10256000FF3F0ED0A64220D18D421ED100EBC20209
:102570001A4B506803F8104003EB4003461C597097
:1025800017D1164B93F9000084421A4603D193F9F0
:1025900001308B420CD092F902309C420AD192F960
:1025A00003508D4206D1012003E001320833D0E709
:1025B000002070BD55782840FF280BD0D07803400C
:1025C000FF2BF0D1012302F8134002EB430218461F
:1025D0005170EEE70023F6E7CC570000120300200D
:1025E00010B5074A074811460023013350F8044B41
:1025F00041F8044B402BF8D1034B9A6010BD00BF4B
:10260000000000200000000000ED00E007B50521FB
:1026100001A8FEF7B1FC9DF904301F2B86BF03F023
:102620001F0305494FF0A041012202FA03F3C1F84C
:102630000C3503B05DF804FB000300500023435049
:1026400082B043580193019B02B07047074A282388
:10265000584313180021597413581A6A22B1586A42
:10266000800701D5D8691047704700BF6C0600206D
:10267000074A2823584313180021597313581A6A1C
:102680002AB1596AC90702D50121D8691047704794
:102690006C060020084A2823584313180021D973D8
:1026A000597313581A6B2AB1596B490702D5042183
:1026B00099631047704700BF6C060020114B53F818
:1026C0002020114B10B54FF4A671C2F80833044610
:1026D0001046FFF7B3FF4FF48871FFF7AFFFD2F852
:1026E000003223F02003C2F80032084B282101FBFE
:1026F000043401232374002384F824301023C2F807
:10270000043310BDD8570000100008006C060020EC
:102710002DE9F041174B184F53F82040DFF85C804B
:10272000C4F80883282545437E190435706900F0F4
:1027300083FC2023B3614FF4A6712046FFF77EFF90
:102740004FF48871FFF77AFFD4F8003243F020038A
:10275000C4F8003200233D440122B374C4F8345558
:102760003374C4F8382586F82430C4F80483BDE8EF
:10277000F08100BFD85700006C0600201000080050
:1027800008B5174B1A7832B100201870154BDB7B57
:10279000F3B1FFF77FFF144B1A781AB100201870BD
:1027A000FFF754FF114B1A7842B100221A700D4BFB
:1027B00093F8373001207BB1FFF76CFF0C4B1A7890
:1027C0006AB100221A700120BDE80840FFF73EBF41
:1027D0001846FFF74DFFDEE7FFF74AFFEEE708BDBB
:1027E000BE0600206C060020BC060020BF060020AC
:1027F000BD06002040B9074B01221A70064B4FF46A
:102800008012C3F8002170470128FCD1034B1870D7
:10281000F4E700BFBE06002000E100E0BF06002094
:10282000484B2DE9F74F53F82090D9F8102107466F
:102830009846D2B14FF488714846FFF7FFFE28252D
:10284000414A05FB07F3D4189346267C002E3FD05F
:1028500000212174A173D358DA6B32B1196CC80509
:1028600003D54FF480715964904758F82740D4F845
:102870004C31FBB1D4F81031E3B94FF4A6712046C6
:10288000FFF7DCFE304A28237B43191D1344987C54
:1028900080F001000144186A0A44C4F83425411C40
:1028A0004FF00102C4F8382504D09969032946D9AC
:1028B00001F0D2F9D4F820313BB120464FF49071A9
:1028C000FFF7BCFE3846FFF795FF03B0BDE8F08F79
:1028D000A57CD9F83CA585F00102A274BAF1000FDD
:1028E000C3D01D4403F118090435D9445D4401A93E
:1028F000606900F0C3FB68B115F8013B037001A9E2
:10290000606900F0E5FB013601214846FEF7A5FBB2
:10291000B245ECD1282303FB07BB9BF81130002BF9
:10292000A3D101238BF81130084A4FF4801127B945
:1029300007480370C2F8001197E70648F9E783F8E3
:102940002420B7E7D85700006C06002000E100E023
:10295000BC060020BD0600200120FFF761BF00205B
:10296000FFF75EBF41682DE9F8434D1C044610D0C7
:102970001F2987BF01F01F03474A0B464FF0A042B3
:102980000120984003F5E073C2F80805032042F8DF
:102990002300A268501C0CD01F2A8BBF02F01F031B
:1029A00013463D484FF0A04003F5E073002540F882
:1029B00023502368394E56F82300C0F80C15C0F890
:1029C0001425227D012A15D1E268511C0CD01F2A42
:1029D0008BBF02F01F0111462F4D4FF0A04501F5AE
:1029E000E071002745F821704FF0FF31C0F808155D
:1029F000C0F810252A4D2169282707FB03531A6ABE
:102A000091423CD0187F01F0E9FB236807FB035398
:102A10001B6A013302D0206901F0C8F82069431C09
:102A200027D0204901F052F8082806D1206901F08A
:102A3000BDF81C49206901F049F82368206956F85F
:102A400023704FF0280808FB035207F5887792F8A7
:102A50001C9001F0F3F839460246484601F088FB25
:102A6000236808FB0353187F01F0A2FB206901F0E3
:102A7000D3F82368282202FB035523692B622368BD
:102A8000217D56F82320637D0B43C2F86C35A36982
:102A9000C2F82435BDE8F88300030050D857000081
:102AA0006C060020D457000070B50468164E28222A
:102AB0006243B118B2588242054602D192F82C30D6
:102AC00083B12846FFF74EFF282363432046F55085
:102AD000002385F82C3095F82D304BB1BDE87040BF
:102AE000FFF7ECBD92F82D200B7C4AB93BB1204694
:102AF000FFF70EFE054B53F8243001221A6070BD1B
:102B0000002BFCD12046E9E76C060020D8570000D6
:102B10002DE9F84F514B524D17461A780446884616
:102B2000002A54D000221A7000F0C6FF08B900F045
:102B300089FF4C4E4C491420FFF7E0F9E02386F85A
:102B400014334FF48013C6F880313360DFF84C91B2
:102B5000464921220123484600F05BFAC5F814904B
:102B60004FF00009C5F80090414801F0D5FA414BFB
:102B700041494FF0FF3AC5F820A00220C3F808A34E
:102B8000FFF7BCF9042386F80293C6F8803133605E
:102B9000DFF80CB1394921220123584600F039FAF7
:102BA000C5F83CB0C5F82890354801F0B5FA354B6A
:102BB000C5F848A03449C3F808A32820FFF79EF9B8
:102BC0004FF4807386F82893C6F8843173603946D1
:102BD0004046FFF7B9FC28234343EA182060966873
:102BE0000136012E96601FD1284A52F82020082174
:102BF000C2F800150C334FF0FF31C2F80C151D441C
:102C0000C2F814154FF08051C2F824151046C2F8CE
:102C100044554FF49071C2F84865FFF70FFD966078
:102C2000D2F81C31002BFBD0194BA3614FF0FF33BE
:102C3000C4E903330023A3822362164B9C4208BFDE
:102C4000154A4FF00103C4E9018708BF136084F8F7
:102C50002C302046BDE8F84FFFF726BF16030020B2
:102C60006C06002000E100E081270000040600203F
:102C700088060020002000405F2900003806002060
:102C8000B00600200080024059290000D8570000FB
:102C900000502700C00600202C0700202806002036
:102CA0005C060020B1F5166F35DBB1F5965F35DBBC
:102CB000B1F5165F35DBB1F5615F34DBB1F5964FE9
:102CC00033DBB1F5E14F32DBB1F5164F31DBB1F556
:102CD000614F30DBB1F5963F30DBB1F5E13F30DBE2
:102CE000B1F5613F2FDB1E4B99422FDDB1F5E12F8E
:102CF0002FDBB1F5612F2FDB1A4B9942D4BF4FF078
:102D000070614FF0805183698B421EBF0123816146
:102D100080F82C3070474FF49E21F4E74FF41D21CA
:102D2000F1E71149EFE71149EDE71149EBE71149E7
:102D3000E9E71149E7E74FF41D01E4E74FF46B01C0
:102D4000E1E70E49DFE74FF0EB71DCE74FF06C7124
:102D5000D9E74FF08061D6E74FF0E861D3E700BFD5
:102D60008FD003003F420F0000B013000050270037
:102D700000F03A0000A04E0000C0750000903A013B
:102D8000F7B5002280F82D200568154CFFF78CFE62
:102D9000282202FB054256697289F3889BB293424E
:102DA000FAD001A9304600F0A3F901A90746304640
:102DB00000F0C9F928235D4305F1180001212044E2
:102DC000FEF742F9631993F824202AB1002283F810
:102DD0002420186A00F040FF387803B0F0BD00BF2F
:102DE0006C06002038B504680D46FFF75DFE114BF8
:102DF00053F82420D2F81C31002BFBD010464FF49E
:102E00008E71FFF71BFC0C4928236343C8180C3351
:102E10000B440124C2F844350573C2F848454FF409
:102E200090711046FFF70AFC4FF48073C2F8043328
:102E3000946038BDD85700006C060020002210B501
:102E400080F82D200468FFF72FFE054B282202FB97
:102E5000043463695889DB88C01A18BF012010BD8B
:102E60006C06002002680949282303FB02135B7BE0
:102E7000DBB243B9064B53F82230D3F81C010030C3
:102E800018BF012070470020704700BF6C0600206B
:102E9000D8570000014B436000207047E057000006
:102EA0000846704700207047024B1868003018BF72
:102EB000012070473007002008B5024800F0A6F84E
:102EC000002008BD3007002008B510461A4601F062
:102ED000C7FE002008BD00002DE9F043814687B001
:102EE00014480F461646984600F08DF80446F8B987
:102EF0000546AE4216D10F4800F088F8D9F80850C0
:102F000065B110220021684601F0D2FE02238DF83F
:102F100000300297CDE904686846A847204607B00C
:102F2000BDE8F08307EB053001F08CF90135E0E7EF
:102F30001124F3E7300700202DE9F041054686B063
:102F400012480F4690461E4600F05DF80446D8B978
:102F5000B2084146384601F08DF90C4800F056F8A9
:102F6000AD686DB110222146684601F0A1FE012333
:102F70008DF800300C9B0297049605936846A8478D
:102F8000204606B0BDE8F0811124F9E730070020A3
:102F900072B6054A1378191C18BF0121013301705C
:102FA00013700020704700BF34070020044B20B18D
:102FB0001A78013A1A7000207047187062B6FAE762
:102FC0003407002050E8002F42EA010340E8003CAB
:102FD0009CF0000FF6D11046704750E8003F03EA1E
:102FE000010240E8002C9CF0000FF6D1104670471B
:102FF00050E8003FA3EB010240E8002C9CF0000FDA
:10300000F6D1104670470121FFF7DCBF0021FFF722
:10301000E4BF10B561B1B2FBF3F403FB1424A4B216
:1030200044B9C0E9001484608281C381204610BD88
:103030000E20FCE70920FAE782B050E8022FC18891
:10304000B2EB324F4FF0000317BF92B241EA014199
:1030500042EA014104E04268B2EB324F08BF01236B
:1030600040E80212002AE8D18DF807309DF80730B9
:10307000002B0CBF1120002002B0704737B550E87C
:10308000013F9DB2C48925448489A54228BF2D1BD8
:103090000489A54202BFBFF32F8F002207E0C5EAD3
:1030A000030540E80154002CE9D14FF001028DF8EE
:1030B00003200193019B9DF803200B6002F0FF03A6
:1030C00022B10B880068184403B030BD1846FBE7F6
:1030D0000A884B889A4209D150E8012FC2EA02427D
:1030E00040E80123002BF7D10120704700207047F2
:1030F00037B550E8023F1FFAA3F5C488A54202BFC6
:10310000BFF32F8F00220DE0C48925448489A54296
:1031100028BF2D1BC3EA054540E80254002CE8D126
:103120004FF001028DF803200193019B9DF80320CD
:103130000B6002F0FF0322B14B880068184403B013
:1031400030BD1846FBE70A884B889A4209D150E8FF
:10315000022FC2EA224240E80223002BF7D10120CD
:10316000704700207047000070B5064D06460024E9
:1031700055F8043B0BB1304698470134042CF7D185
:1031800070BD00BF440700200B4A0C4B518814202F
:1031900000FB0131CB6833B904204968107001226B
:1031A000074800F0E7BB05230649137002238B8014
:1031B000012200230968F3E75C0700207407002060
:1031C000A4030020B007002007B5002305490093A1
:1031D000054A09680548082300F09EFB03B05DF826
:1031E00004FB00BFB007002018580000A403002013
:1031F00007B50023009301460823034A034800F063
:103200008BFB03B05DF804FB10580000A403002002
:1032100013B500230C46009301460423074A0848CF
:1032200000F07AFB38B9074B142202FB0434012367
:10323000237402B010BD0E20FBE700BF0C58000045
:10324000A40300207407002037B50A480A4B4268DF
:103250009C88196853880325033305709BB20020AE
:1032600000909B0001EB8401044800F055FB03B083
:1032700030BD00BF5C070020B0070020A403002081
:103280004388033300EB8303994209D382884FF6C6
:10329000FF739A4206D00088B0FA80F04009704768
:1032A0000220704701207047154A142303FB0020B9
:1032B00070B50B6844680D4604F58056ABB15C8868
:1032C000033403EB8404B4420DD2236801330AD0E3
:1032D00031462046FFF7D4FF01280BD010F0FF0F36
:1032E00005D00228EFD1002003E00834EBE72C6082
:1032F000012070BD6388033304EB8304E3E700BF60
:1033000074070020436873B504460D4663B3234A2F
:10331000D1688B4228D31269934225D813F0030059
:1033200022D11F4A2189128991421DD121689A68B0
:10333000914219D11B4A51688B4203D901F5805142
:103340008B420DD3926993420CD902F5805293427D
:1033500008D201232B80B0FA80F0400902B070BD82
:103360000346F7E70A20F6E700232B801E46019666
:1033700001A92888FFF798FF30B92B8801339BB249
:10338000012B2B80F3D9E9E7019B226899689142D0
:10339000EED16360024B1B892381DFE7A403002089
:1033A0005C070020740700202DE9F8431C461C4BE5
:1033B0001B7806460F4615466BB372B36CB3DFF845
:1033C00068804FF01409A388012B01D90A2020E05E
:1033D00009FB03F318F803302BB92146A088FFF747
:1033E00063FF20B92060A3880133A380EBE7236843
:1033F0001EB1998832889142EFD11FB119883A885D
:103400009142EAD19A68C5E90023064B1B892B81BA
:103410000020BDE8F8830220FBE70520F9E700BFA4
:10342000540700205C0700207407002008B5074BF4
:10343000191D5888FFF738FF18B1BDE80840FFF79D
:1034400003BFBDE80840FFF79FBE00BF5C07002038
:103450002DE9F04FA04FDFF8A49289B00646B84698
:103460003B6823B949469D48FFF742FE3860D8F8CB
:10347000005029784B1E052B00F2FA80DFE813F08C
:1034800006005E005E00EE00EE00590126B1944B8E
:1034900000225A600124ECE02B79032B1DD8DFE8D1
:1034A00003F015022A358F490B78022B084619D0F4
:1034B0000B7D022B4FF0010316D114225343C21887
:1034C0000020C8545068FFF793FE03E001232B71DE
:1034D000FFF77AFE002800F0BC80814B00225A6082
:1034E0000E24C6E00023E8E77D4A137000235360F2
:1034F00041F61D54BDE07C497C48002302222B711B
:103500008A800122096800F035FAE3E7764C00264C
:103510002E712068734DFFF76BFE754BD4F800C019
:103520005A8814235343EA18EE5451682160A18845
:10353000C2F804C011810222A280CBE7B5F814A022
:10354000AA7DDFF8A0B1AEB1022AEB8806D914211A
:1035500001FB0AB1DA1C088902440A81142202FB29
:103560000ABAC3F57F43BAF80A20FD331344AAF818
:103570000A308FE7142303FB0AB318895C6804EB55
:103580008004062A68D8DFE802F0274D35431D592C
:10359000040041F61D54AA7DEB88022A06D91421A5
:1035A00001FB0AB1DA1C088902440A81142202FBD9
:1035B0000ABAC3F57F43BAF80A20FD331344AAF8C8
:1035C0000A3056E04B484C4900234360AB69036026
:1035D000FFF798FE002871D00223AB7500230093FB
:1035E0000423EA182146414800F096F9002830D01B
:1035F0000E24D0E72B69002B14BF03230123AB75E6
:103600000023009305F10C02042304F10801EAE70A
:103610000123AB750022EB8800929B002A6904F11C
:103620000C01E0E703290CBF05230623AB7500233B
:103630000093042305F10802E118D4E70623AB75D3
:103640002D4B19882B4B5868FFF7E2FD04460028E4
:10365000A1D109B0BDE8F08F0F249CE7002E7FF4C4
:1036600019AF2B79012B4BD0E3B1022B3FF440AFC4
:103670000F241422002103A801F01AFB41F61D5368
:103680009C4208BF0024D8F8003004941A78023A0B
:10369000042A00F20381DFE812F0E400F0001301D5
:1036A0001B01220102232B710DF10A01EB68039328
:1036B00003A8CDE90466FFF725FE08B90A24D8E778
:1036C0000498BDF80A108388EB8003882B81FFF7EC
:1036D0009FFD044627E000BF700700209C070020E4
:1036E0005407002074070020B0070020A403002026
:1036F0005C07002038070020B80700206C07002076
:10370000DFF8F8A103AA53463146A81DFFF74CFE87
:10371000044658B9BAF804100498FFF779FD044636
:103720000A2C3FF4E5AE002CA3D192E7CAE900666B
:10373000F6E7002E7FF4AEAE6B4B1A7BB2B11E7370
:103740001A78013A062A93D801A151F822F000BF55
:10375000F73700001D3800003B38000041380000FA
:103760007136000047380000593800001A78072ADF
:10377000E6D801A151F822F0993700004137000046
:1037800041370000BF370000D3370000F337000097
:10379000F3370000BB3700001A89544901321A81FF
:1037A00000225A801A730A78B2FA82F252099A7287
:1037B0000A7DB2FA82F25209DA72012207E04C491C
:1037C00058688A884088033202448A8002221A702C
:1037D000B6E7464C5A884649142505FB024208685C
:1037E000546850608888108102228A800C6006220A
:1037F000EDE70722EBE79A7A32B9DA7A8AB9002242
:103800001A705A805A6073E6384900229A72CA6860
:10381000002AF2D1097C0029EFD05A80FFF706FE7A
:1038200057E70022DA72314A116A0029E7D192F88B
:103830002420002AE3D00122EFE7FFF705FD48E747
:10384000FFF7A2FC45E7294A5B88142101FB03230B
:103850005868FFF7CDFC3CE700225A60FFF7B4FC44
:1038600037E701228DF80C201A89ADF818209A88C4
:10387000DB68ADF81A20059310E002228DF80C20C9
:103880001A89ADF818209A88ADF81A20DA689B7D5D
:1038900005929A1F534253418DF81C3003A8FFF73D
:1038A00063FC002649461348C8F80060FFF74BFC4C
:1038B00001211148FFF79CFB00287FF4D1ADC8E639
:1038C00003228DF80C20DA88ADF818201A89CFE78A
:1038D0000422DB888DF80C20ADF81830DEE70523D4
:1038E0008DF80C30DAE700BF5C0700207407002079
:1038F000B00700209C070020AC070020BC07002078
:103900004068FFF7A5BD0B4620B11BB1036011460F
:103910001B6818470E2070472DE9F04108B302B329
:10392000D0F800E0BEF1000F1ED0FBB14768D7F819
:103930000480B3FBF8F708FB1737BFB942EA010C64
:103940001CF0030F14D1C768B94211D34C1E05698E
:103950001C44AC420CD8DEF80C40A446BDE8F04153
:1039600060470E20BDE8F0810820FBE70920F9E759
:103970001020F7E7F0B5D8B1D0F800C0BCF1000FC7
:1039800018D0CAB14768D7F800E00EF1FF370F42F0
:1039900014D1C768B94211D34C1E05690EFB02440D
:1039A000AC420BD8DCF81040A446BDE8F0406047BC
:1039B0000E20F0BD0820FCE70920FAE71020F8E708
:1039C000FDF766BBFDF76EBB00F1804000F5C0401F
:1039D000002382B0036003680193019B02B070472B
:1039E00003681F2B83BF03F01F03036001484FF0E0
:1039F000A04070470003005007B5019001A8FFF7F1
:103A0000EFFF019B00EB8300D0F8002722F4403247
:103A1000C0F80027D0F8003743EA0143C0F8003768
:103A200003B05DF804FB0000054B4FF0FF320728A0
:103A300043F8202084BF1B1883F85820704700BF2C
:103A4000C407002010B5184C94F86A304BBB04F141
:103A500030033021FF22013911F0FF0103F8012B5F
:103A6000F9D1C8B2FFF7E0FF01310C29F9D10F4BB2
:103A7000002262669A800E4BE02183F806134021F3
:103A8000C3F8801119604FF4BE70FFF79DFF094B1A
:103A90004FF00041C3F80413012384F86A30104644
:103AA00010BD0820FCE700BFC40700202808002044
:103AB00000E100E000600040034B93F86A00003032
:103AC00018BF0120704700BFC407002037B5354B31
:103AD0001A18044692F93000013061D18878002824
:103AE00052D01846002250F8045B013546D118190F
:103AF00080F83020002043F82200920002F180423A
:103B000002F5C0420B78D2F81055487825F4991583
:103B10001B04000525F4F85500F4801003F440332D
:103B2000C2F8105503432002D2F8105500F47C501F
:103B300003432B43C2F810354A780194012A01A8A7
:103B400026D1FFF74DFF019B9A40C0F8082501A838
:103B50000194FFF745FF019B134903F5E07303222E
:103B600040F8232024FA02F2012304F0070003FAAC
:103B700000F08B5C18438854002003E00132082ACF
:103B8000B1D1042003B030BDFE2382F83030D3E73A
:103B9000FFF726FF019A01239340C0F80C35D6E7C2
:103BA0000820EFE7C40700202808002037B5174990
:103BB0000D18044695F83000072809D8FFF734FFA0
:103BC00095F93030124A03F5A273002042F8230021
:103BD0000B19FF220F4D83F83020E10804F0070392
:103BE00001229A406B5C13420DD001A80194FFF7AB
:103BF000F7FE019B03F5E073022440F823406B5C61
:103C000023EA02026A5403B030BD00BFC40700209B
:103C10000060004028080020074B184490F930301D
:103C20009B0003F1804303F5C043D3F8102542F015
:103C30000302C3F810257047C4070020054B184441
:103C400090F930008000C0B200F1804000F5C04023
:103C5000704700BFC4070020064B1844012290F9AA
:103C6000303018339B00DBB203F1804303F5C043CF
:103C70001A607047C4070020F7B53B4E331805465D
:103C800093F93030002B6CDA8B78C3F34003002BB0
:103C90000BBF082400240C200820844202D10420F9
:103CA00003B0F0BD56F82470013743D1701946F8BF
:103CB000242080F8304013B9331983F858508B789A
:103CC0005A0717D4D80737D501A80195FFF788FE02
:103CD000019B00EB8300D0F8003723F00203C0F80B
:103CE00000372248EA0805F007070123BB40875C3C
:103CF0003B43835488780A7810F0020028D0A4004F
:103D000004F1804404F5C0442D02D4F8103523F4A6
:103D10004F3323F44073C4F810351204D4F810352F
:103D200005F47C5502F4403215431D43C4F8105588
:103D30000020B5E70134B0E701A84A780195FFF704
:103D40004FFE019B03F5E073920040F82320C8E783
:103D5000083C344494F8605045EA821284F86020AC
:103D60009EE708209CE700BFC40700202808002029
:103D700073B5224C2518064695F93020072A19DD1F
:103D8000224492F858309B09032B0FD1019001A8CF
:103D9000FFF726FE019AD0F81035D340DB0707D491
:103DA00002213046FFF728FE02B070BD012BF7D08C
:103DB0000321F6E7D3B2072BF6D8930003F1804333
:103DC00003F5C043D3F8100540F00100C3F8100517
:103DD00002F14000800080B2FFF7F6FD0029E3D039
:103DE00095F9303054F82330002BDDD0012303FA4D
:103DF00002F2034BC3F80423D6E700BFC407002038
:103E0000006000400E4B034493F93020072A02DD86
:103E10000021FFF7F1BDD3B2072B10D8930003F1B7
:103E2000804303F5C043D3F8101521F00101C3F816
:103E30001015012303FA02F2024BC3F8082370475E
:103E4000C407002000600040F7B50446FFF7DAFF22
:103E50001649174E0B19E50893F93030DAB2072AE4
:103E60009FBF03F5A273134A002042F8230004F019
:103E7000070301229A40735D13420DD001A80194FB
:103E8000FFF7AEFD019B03F5E073022740F82370B6
:103E9000735D23EA02027255214491F83000FFF766
:103EA000C3FDFF2381F8303003B0F0BDC40700200C
:103EB00028080020006000402DE9F04F002489B060
:103EC000CDE90244624D4FF48072012102F180433A
:103ED00003F5C04390B21B68012B06D1D5F804331B
:103EE0000B4202D0FFF770FD0C430432B2F5907F15
:103EF0004FEA4101EAD1574B1B68012B0ED14FF419
:103F0000BE70FFF761FD4FF0A04344F00044D3F8CA
:103F100010350293504BD3F81035039314F0FF0F74
:103F20001AD04E4F01260025264210D0AB0003F1D7
:103F3000804303F5C043D3F81005D3F8101557F8A4
:103F4000253023B1C1F30141C0F305209847013565
:103F5000082D4FEA4606E7D1002C75DA0DF110085E
:103F600000230493C8F804304FF0FF33CDE9063343
:103F7000DFF8E8A0DFF8E89000252F4619F9014B9B
:103F8000631C48D0E4B2012324F0C00604F0070209
:103F900003FA02F2F00808AB191811F8083C1342B2
:103FA00039D00AEB0603A40993F930305AF823B04C
:103FB000BBF1000F08D1032C2DD118F800C04CEA3A
:103FC000020C08F800C001E0032CF6D001A801960D
:103FD000FFF706FD019B11F8181C03F5E07C114268
:103FE00050F82C00C0F3014005D0022813D1032C57
:103FF0000BD1214604E003280DD1032C05D1022169
:104000003046FFF7F9FC0135EDB2BBF1000F02D0ED
:1040100021463046D8470137042FAFD1A5B14FF024
:10402000A0430299D3F8102503F540739142D3F8C9
:10403000103502D10399994206D002920393049A53
:10404000059B0692079395E709B0BDE8F08F00BF86
:10405000006000407C61004000030050C407002065
:104060002408002000F180431A68002A1BBF0022A8
:10407000012000201A6070474FF0804310B5D3F83C
:104080000443620707D54FF48470FFF7EBFF10B1CC
:104090001E4B1B689847A30608D54FF48A70FFF79C
:1040A000E1FF18B11A4B00201B689847600608D53D
:1040B0004FF48C70FFF7D6FF18B1154B01201B6829
:1040C0009847210608D54FF48E70FFF7CBFF18B143
:1040D000104B00201B689847E20508D54FF49070FC
:1040E000FFF7C0FF18B10B4B01201B689847A305D1
:1040F0000AD54FF49270FFF7B5FF28B1054B0220A7
:104100001B68BDE81040184710BD00BF30080020F4
:1041100034080020380800202DE9F84F124D134FC5
:1041200080464FF0000A04264FF001095FFA8AFB2F
:10413000002009FA0BF4FFF743FC2C4208D03B683F
:1041400014EA030201BF23433B6088F800B016461F
:104150000020FFF737FC1EB1A5430AF1010AE5D1A3
:104160003046BDE8F88F00BFFFFF0F003C0800207D
:1041700010B5A1B19AB101238340C3F3130484B1F4
:104180000A4C246823420ED0C00000F1804000F5A4
:10419000F830C0F81015C0F81425002010BD0E200E
:1041A000FCE70720FAE70820F8E700BF3C080020FA
:1041B000012303FA00F0C0F313031BB1054B1B6886
:1041C000184204D0044BC3F80405002070470820AF
:1041D000704700BF3C08002000F00140012303FAB3
:1041E00000F0C0F313031BB1054B1B68184204D049
:1041F000044BC3F80805002070470820704700BF33
:104200003C08002000F00140074B00221A6082B0F9
:104210001B680193019B054BD3F80805044B1B68F1
:10422000C0B202B0184700BF00D1004000D000402B
:1042300040080020024AD2F80034002BFBD070471F
:1042400000E001400A4908B50223C1F80435BFF374
:104250006F8FBFF34F8FC1F80805FFF7EBFF002307
:10426000C1F80435BFF36F8FBFF34F8F08BD00BF98
:1042700000E001400E4B10B50124C3F80445BFF324
:104280006F8FBFF34F8F01EB8204401AA14208D118
:10429000074B0022C3F80425BFF36F8FBFF34F8F86
:1042A00010BD431851F8042B1A60FFF7C3FFEDE768
:1042B00000E00140014BD3F80405704700100140B5
:1042C00010B50E4C58220021204600F0F1FC30239E
:1042D00022464FF400410A48FCF70CFE50B9226810
:1042E000084B9A4205D001465822204600F0E0FCD7
:1042F000054810BD6FF4C870FBE700BF48080020F8
:10430000B0080020A353025C6EFEFFFF30B58BB0F7
:104310002022002102A800F0CBFC164800F02EFE5F
:10432000FFF7CEFF044650B9134C01A86568FCF7AF
:1043300085FA38B16FF4FE7401A8FCF7ADFA204697
:104340000BB030BD4FF402412A460198FCF790FAB9
:1043500002A90198FCF796FA0028EBD104F11001AC
:10436000202202A800F06EFC044B041E18BF1C465D
:10437000E2E700BF5B5B0000480800206EFEFFFF25
:104380000378012BF7B5044666D033B1022B00F059
:1043900095806FF4FE7003B0F0BD624C0569227821
:1043A00042BB2378002B3AD15F4800F0E7FD4FF481
:1043B00000415E486D68FDF75DFF4FF4004405F570
:1043C0000241B4FBF0F444435848FDF753FF05F5B0
:1043D0000143B4F5004F03F1FF03B3FBF0F303FB1C
:1043E000000502D0524800F0C9FD504EA54226D823
:1043F0000020D0E74F48504B02689A4202D06FF03D
:104400000B00C8E7202205F134011030019200F0C2
:1044100019FC0028F3D1019B202BC2D0EFE7454BBC
:10442000454A1968914207D1D3E90201D5E902232F
:10443000994208BF9042B7D36FF0D400ABE7214652
:104440003046FDF717FF214607463046FDF7B0FE20
:10445000002861D13C44C9E70369826841685D680E
:10446000114464235943B1FBF5F14AB1052053438C
:10447000B1FBF0F6B3FBF5F3B3FBF0F39E4203D9C7
:1044800025222E48FDF7F6FAD4E90131E2682748E3
:1044900001F50241FDF7AEFE28B1294800F06EFD9E
:1044A0006FF4FB7077E7D4E90120E16800F5024082
:1044B00000F0C8FB00289BD02248EFE7224B1D6884
:1044C0002F23B3FBF5F303FB0555284600F0AAFBA9
:1044D000064628B91D4800F051FD6FF009005AE763
:1044E0002A46002100F0E4FB2369344603F130073B
:1044F00018685968224603C20833BB421446F7D1F4
:104500002B4632464FF400410848FDF773FE002861
:104510003FF46EAF0E48C1E76FF4FB710D48FDF735
:10452000A9FABDE717030020B6580000B008002024
:104530000359000048080020A353025C47590000BB
:104540006959000086590000AC080020B1590000EC
:10455000D3590000F559000013B5FBF73DFE28BB09
:104560001B48FBF789FE044610BB1A48FBF792FE76
:104570000446E8B91848FDF78DFE184A1060184A3D
:10458000009203462146174A0120FCF777F80446BB
:10459000A0B9154800F0F2FCFBF73CFE0E48FDF711
:1045A00005FE21461148FDF765FA04E06FF4FE743C
:1045B0000F4800F0E3FC204602B010BD10F5FD7F6F
:1045C000EAD1FBF727FE0448FDF7F0FD0948F0E7C4
:1045D000B4080020B8080020B0080020AC08002073
:1045E00081430000205800006858000090580000E7
:1045F000255800004C58000030BFFDE730B5384862
:1046000087B000F0BBFC6FF4FE7336480093019353
:104610000293FDF7ADFD0446A8B1334800F0AEFCAF
:104620000024324800F0AAFC002C57D0BFF34F8F73
:104630002F49304BCA6802F4E0621343CB60BFF3EA
:104640004F8F00BFFDE72C4800F098FCFFF738FEC5
:10465000FFF782FF0290029B13F5FD7F12D0029BB1
:104660007BB1FFF753FE0190019D45B1234B1C70B8
:10467000FFF772FF0290029DB5FA85F56D090124DE
:1046800001E001242546FFF741FE0190019B13B193
:10469000019B0093C5E725B1019B13B9184800F0B1
:1046A0006DFC184D03AAD5E90201FCF777F80090DC
:1046B000009B73B1D5E902231348FDF7DBF94FF4F2
:1046C00002411248FDF7D6F94FF40240FCF762FCB4
:1046D000A7E703A90E48FDF7CDF9F0E730BFFDE7E6
:1046E0001E5A0000B0080020505A00004C5B000029
:1046F00000ED00E00400FA05755A000017030020E1
:104700009E5A000048080020C55A00000B5B0000BC
:10471000E95A0000014B1868704700BF18030020D9
:104720008A892DE9F041054610070C4658D44B689C
:10473000002B05DC0B6C002B02DC0020BDE8F081B7
:10474000E66A002EF9D0002312F480522F682B6005
:1047500032D0606DA3895A0705D56368C01A636BB0
:104760000BB1236CC01A00230246E66A216A284670
:10477000B047431CA38906D129681D292CD82A4A91
:10478000CA40D60728D500226260D9042269226077
:1047900004D5421C01D12B6803B96065616B2F60A1
:1047A0000029CAD004F14403994202D02846FCF7FC
:1047B000EEFB00206063C1E7216A01232846B04771
:1047C000411CC7D12B68002BC4D01D2B01D0162B48
:1047D00001D12F60B1E7A38943F04003A381ADE786
:1047E0000F69002FA9D093070E6808BF4B690F60AF
:1047F00018BF0023A6EB07088B60B8F1000F9CDD03
:1048000043463A46216AA66A2846B047002806DC95
:10481000A38943F04003A3814FF0FF308EE70744A4
:10482000A8EB0008E9E700BF0100402038B50B699C
:1048300005460C4613B90025284638BD18B18369D2
:104840000BB900F087F8144B9C421BD16C68B4F98B
:104850000C30002BEFD0626ED00704D4990502D43F
:10486000A06D00F078F928462146FFF759FF636EE6
:10487000DA070546E0D4A3899B05DDD4A06D00F0DE
:104880006BF9D9E7054B9C4201D1AC68DFE7044BDB
:104890009C4208BFEC68DAE7A05B0000C05B000048
:1048A000805B0000002310B50446C0E9003383603C
:1048B00081814366C281C0E90433836119460822BD
:1048C0005C3000F0F5F9054B6362054BA362054BC4
:1048D000E362054B2462236310BD00BFAD4F0000AF
:1048E000CF4F0000075000002B500000014900F09E
:1048F000EFB800BF2D48000070B54A1E682555432B
:104900000E4605F17401FCF740FB044640B100215E
:10491000C0E900160C30A06005F1680200F0C8F98B
:10492000204670BD014800F016B900BFC008002045
:10493000014800F011B900BFC0080020014800F094
:104940000AB900BFBF080020014800F005B900BF48
:10495000BF08002010B50446FFF7F0FFA3691BB1A4
:10496000BDE81040FFF7F0BFC4E912332365134BD5
:10497000134A1B68A262A34204BF0123A36120461D
:1049800000F020F86060204600F01CF8A06020468F
:1049900000F018F80022E06004216068FFF782FF51
:1049A00001220921A068FFF77DFF02221221E068A1
:1049B000FFF778FF0123A361D2E700BFE05B0000AF
:1049C000ED480000F8B50746FFF7ACFF1E4B1E6828
:1049D000B36913B93046FFF7BDFF4836D6E9013455
:1049E000013B03D533680BB33668F7E7B4F90C50D5
:1049F000D5B9164BE36004F15800656600F0AAF8DB
:104A0000FFF796FF2560C4E90155C4E90455A56187
:104A10000822294604F15C0000F04AF9C4E90D556A
:104A2000C4E912552046F8BD6834D9E70421384658
:104A3000FFF762FF044630600028D5D1FFF778FF0A
:104A40000C233B60EEE700BFE05B00000100FFFFCE
:104A500070B50E461446054618B183690BB9FFF7C9
:104A600079FF144B9C421AD16C68636ED80705D449
:104A7000A389990502D4A06D00F06DF8224628465E
:104A8000314600F0C5F9636EDA07054605D4A389FF
:104A90009B0502D4A06D00F05FF8284670BD064B60
:104AA0009C4201D1AC68E0E7044B9C4208BFEC6833
:104AB000DBE700BFA05B0000C05B0000805B000084
:104AC000024B0A4601461868FFF7C2BF18030020D0
:104AD0002DE9F8438046894600F14804002614B9C0
:104AE0003046BDE8F883D4E90175013F01D524685B
:104AF000F5E7AB89012B07D9B5F90E30013303D0A7
:104B000029464046C84706436835EEE770B50D4D67
:104B10000D4C641BA4100026A64209D10B4D0C4C71
:104B200000F04CFD641BA4100026A64205D170BD08
:104B300055F8043B98470136EEE755F8043B984793
:104B40000136F2E78003002080030020800300206C
:104B50008403002070477047704770B50E46B1F966
:104B60000E10002996B014461D4607DA00232B606C
:104B7000B3891A0610D44FF480630EE06A4600F041
:104B800055FB0028F2DB019A02F47042A2F50053B3
:104B90005A425A412A60EEE740230020236016B0B3
:104BA00070BD00008B8973B59D0706460C4607D57E
:104BB00004F14703236023610123636102B070BDE8
:104BC00001AB6A46FFF7C9FF009905463046FCF77E
:104BD000DCF948B9B4F90C309A05EFD423F003039B
:104BE00043F00203A381E3E70D4BB362A389206086
:104BF00043F08003A381009B6361019B20615BB153
:104C0000B4F90E10304600F023FB28B1A38923F03D
:104C1000030343F00103A381A3891D43A581CDE7CD
:104C2000ED480000024B01461868FCF7AEB900BF22
:104C300018030020024B01461868FCF7A8B900BF12
:104C40001803002030B501390024A24201D1002010
:104C500005E0035D01340D5DAB42F6D0581B30BD5D
:104C60000A44914200F1FF3300D1704710B511F8AA
:104C7000014B03F8014F9142F9D110BD884210B5A4
:104C800001EB020302D983421C4607D8421E994217
:104C900008D011F8014B02F8014FF8E783189A1A6F
:104CA0009A4200D110BD14F8011D03F8011DF7E769
:104CB00002440346934200D1704703F8011BF9E711
:104CC00038B50546002945D051F8043C0C1F002B8F
:104CD000B8BFE418FCF706FB1F4A1368104633B947
:104CE000636014602846BDE83840FCF7FFBAA34271
:104CF0000CD921686218934204BF1A685B6863602C
:104D000004BF521822600460ECE713465A680AB1E7
:104D1000A242FAD919685818A0420BD12068014460
:104D2000581882421960DDD1106852685A600144F7
:104D30001960D7E702D90C232B60D3E7206821182C
:104D40008A4204BF11685268626004BF091821607A
:104D50005C60C7E738BD00BFA0080020F8B5CD1CD7
:104D600025F0030508350C2D38BF0C25002D06460F
:104D700001DBA94203D90C2333600020F8BDFCF706
:104D8000B1FA21490A6814469CB9204F3B6823B9FF
:104D90002146304600F0FAF838602946304600F0E7
:104DA000F5F8431C23D10C2333603046FCF79EFA00
:104DB000E3E723685B1B17D40B2B03D923601C4448
:104DC000256004E06368A2420CBF0B60536030466C
:104DD000FCF78CFA04F10B00231D20F00700C21A27
:104DE000CCD01B1AA350C9E722466468CCE7C41C88
:104DF00024F00304A042E3D0211A304600F0C6F8A4
:104E00000130DDD1CFE700BFA0080020A4080020BA
:104E100070B50D461446064618B183690BB9FFF705
:104E200099FD1C4B9C4224D17468636ED80705D44D
:104E3000A389990502D4A06DFFF78DFEA368013BFD
:104E4000002BA36005DAA26993421CDBEBB20A2BAC
:104E500019D023685A1C22601D70EDB2636EDA0708
:104E600005D4A3899B0502D4A06DFFF775FE2846E3
:104E700070BD094B9C4201D1B468D6E7074B9C42F8
:104E800008BFF468D1E729462246304600F0ECF826
:104E90000546E3E7A05B0000C05B0000805B00000C
:104EA00070B50E46054618B183690BB9FFF752FD80
:104EB000AB69AC6813B92846FFF74CFD2C4B9C42FC
:104EC00020D16C68636EDB0705D4A389980502D4F2
:104ED000A06DFFF740FEA38919071DD52369DBB13B
:104EE000013EA36816F8011F013BA36039BB002BEC
:104EF00038DA22460A21284600F0B6F8013011D0EF
:104F00000A2511E01B4B9C4201D1AC68DAE71A4B31
:104F10009C4208BFEC68D5E72146284600F008F916
:104F20000028DDD04FF0FF35636EDA0705D4A38982
:104F30009B0502D4A06DFFF70FFE284670BD002B25
:104F400004DAA2699A4206DC0A2904D023685A1CB2
:104F500022601970C5E72246284600F085F8013026
:104F6000BFD1DFE723680A255A1C22601D70DBE7EA
:104F7000A05B0000C05B0000805B0000024B0146AC
:104F80001868FFF78DBF00BF1803002038B5064C26
:104F90000023054608462360FCF780F9431C02D134
:104FA000236803B12B6038BDC808002010B50C463B
:104FB000B1F90E1000F06EF90028ABBF636DA38944
:104FC0001B1823F48053ACBF6365A38110BD2DE98A
:104FD000F0411F468B89DB0505460C46164605D574
:104FE00002230022B1F90E1000F042F9A389B4F9AE
:104FF0000E1023F48053A38132463B462846BDE879
:10500000F04100F083B810B50C46B1F90E1000F075
:105010002FF9431CA38915BF606523F4805343F423
:105020008053A38118BFA38110BDB1F90E1000F009
:10503000EDB8034613F8012B002AFBD1181A0138EA
:10504000704710B56AB10139841810F8013B11F8A6
:10505000012F934203D1A04201D0002BF5D1981A21
:1050600010BD1046FCE70000F8B50E461446054694
:1050700018B183690BB9FFF76DFC214B9C422BD112
:105080006C68A369A360A3891A072FD523696BB342
:1050900023692068C01A6369F6B28342374604DC8C
:1050A00021462846FFF7C2FB30BBA368013BA36043
:1050B00023685A1C22601E7063690130834204D049
:1050C000A389DB0706D50A2E04D121462846FFF71F
:1050D000ADFB88B93846F8BD0A4B9C4201D1AC689B
:1050E000CFE7094B9C4208BFEC68CAE72146284637
:1050F00000F01EF80028CBD04FF0FF37EAE700BFE2
:10510000A05B0000C05B0000805B000038B5074C6E
:10511000054608461146002222601A46FCF7AEF901
:10512000431C02D1236803B12B6038BDC80800209E
:10513000324B70B51D6806460C4625B1AB6913B9F4
:105140002846FFF707FC2E4B9C420FD16C68B4F940
:105150000C309AB215072CD4D00611D40922326033
:1051600043F04003A3814FF0FF303EE0254B9C42CB
:1051700001D1AC68EBE7244B9C4208BFEC68E6E742
:10518000510712D5616B41B104F14403994202D039
:105190003046FBF7FCFE00236363A38923F024035E
:1051A000A3810023636023692360A38943F008037C
:1051B000A38123694BB9A38903F42073B3F5007F5E
:1051C00003D021463046FFF7EDFCA28912F001031F
:1051D0000CD00023A36063695B42A361236953B9C8
:1051E000B4F90C3013F08000BAD170BD920758BFEB
:1051F0006369A360F2E70020F7E700BF180300200F
:10520000A05B0000C05B0000805B000038B5064C6E
:105210000023054608462360FCF7E4F8431C02D14E
:10522000236803B12B6038BDC808002038B5074C8F
:1052300000230546084611462360FCF7E7F9431CA6
:1052400002D1236803B12B6038BD00BFC80800201D
:1052500038B5064C0023054608462360FCF764F980
:10526000431C02D1236803B12B6038BDC80800205D
:1052700038B5074C054608461146002222601A46FA
:10528000FCF7A4F9431C02D1236803B12B6038BD9D
:10529000C808002038B5074C0546084611460022CC
:1052A00022601A46FCF742F9431C02D1236803B17D
:1052B0002B6038BDC808002053B94AB9002908BF7F
:1052C00000281CBF4FF0FF314FF0FF3000F074B9E1
:1052D000ADF1080C6DE904CE00F006F8DDF804E04D
:1052E000DDE9022304B070472DE9F047089E04462B
:1052F0008846002B40F085808A42154648D9B2FA8C
:1053000082F24AB1C2F1200701FA02F320FA07F74C
:10531000954047EA030894404FEA154E230CB8FB2A
:10532000FEF71FFA85FC0EFB178843EA084307FBCC
:105330000CF1994209D9EB1807F1FF3080F0E380B6
:10534000994240F2E080023F2B445B1AA4B2B3FBC7
:10535000FEF00EFB103344EA034400FB0CFCA445B2
:1053600009D92C1900F1FF3380F0CB80A44540F21D
:10537000C88002382C4440EA0740A4EB0C04002704
:105380001EB1D4400023C6E900433946BDE8F0878A
:10539000002A53D0B2FA82F2002A40F0B680491BAC
:1053A0004FEA154E1FFA85F80127B1FBFEFC230CCE
:1053B0000EFB1C1143EA014308FB0CF1994207D98B
:1053C000EB180CF1FF3002D2994200F2EC808446D7
:1053D000591AA3B2B1FBFEF00EFB101443EA0444C9
:1053E00008FB00F8A04507D92C1900F1FF3302D2C1
:1053F000A04500F2DC801846A4EB080440EA0C400B
:10540000BEE78B4208D9002E78D00027C6E90001FC
:1054100038463946BDE8F087B3FA83F77FB98B4247
:1054200002D3824200F2BD80841A61EB03030120A3
:105430009846002EA9D0C6E90048A6E7FFDEC7F1CE
:105440002005BB4022FA05FC4CEA030C01FA07F4E4
:1054500020FA05F821FA05F34FEA1C4E48EA040445
:10546000B3FBFEF9210C0EFB19331FFA8CF841EA4D
:10547000034309FB08FA9A4502FA07F200FA07F11A
:105480000BD91CEB030309F1FF3080F088809A45AB
:1054900040F28580A9F102096344A3EB0A03A4B298
:1054A000B3FBFEF00EFB103344EA034400FB08F8A4
:1054B000A04508D91CEB040400F1FF336BD2A045D2
:1054C00069D90238644440EA0940A4EB0804A0FB0F
:1054D00002894C45C6464B4654D351D0002E69D064
:1054E000B1EB0E0264EB030404FA05F522FA07F3AC
:1054F000FC401D43C6E90054002746E737463046C6
:1055000043E7184637E707461FE7C2F1200320FAB2
:1055100003F7954001FA02F021FA03F34FEA154E22
:105520003843010CB3FBFEF71FFA85F80EFB173367
:1055300041EA034107FB08F38B4204FA02F407D95E
:10554000691807F1FF3C28D28B4226D9023F294433
:10555000CB1A81B2B3FBFEF00EFB103341EA0341DC
:1055600000FB08F38B4207D9691800F1FF3C10D209
:105570008B420ED902382944C91A40EA074714E77A
:105580004145ABD2B8EB020E69EB0C020138134671
:10559000A4E76046F0E7184695E76746D8E78146F6
:1055A0007BE7384645E7ACF1020C2B4410E70238A4
:1055B0002C4421E73746E8E6704700BFF8B500BF46
:1055C000F8BC08BC9E467047F8B500BFF8BC08BCE4
:1055D0009E467047256C6C752E256C6C752E256C5F
:1055E0006C750000982F8A4291443771CFFBC0B58B
:1055F000A5DBB5E95BC25639F111F159A4823F929E
:10560000D55E1CAB98AA07D8015B8312BE853124F6
:10561000C37D0C55745DBE72FEB1DE80A706DC9BB7
:1056200074F19BC1C1699BE48647BEEFC69DC10F63
:10563000CCA10C246F2CE92DAA84744ADCA9B05C9F
:10564000DA88F97652513E986DC631A8C82703B062
:10565000C77F59BFF30BE0C64791A7D55163CA0670
:1056600067292914850AB72738211B2EFC6D2C4D7C
:10567000130D385354730A65BB0A6A762EC9C2816A
:10568000852C7292A1E8BFA24B661AA8708B4BC200
:10569000A3516CC719E892D1240699D685350EF42A
:1056A00070A06A1016C1A419086C371E4C774827E1
:1056B000B5BCB034B30C1C394AAAD84E4FCA9C5B57
:1056C000F36F2E68EE828F746F63A5781478C884A8
:1056D0000802C78CFAFFBE90EB6C50A4F7A3F9BE8A
:1056E000F27871C60000000000000000E511000023
:1056F0003D12000049120000E9110000D111000024
:10570000E1110000290B0000DD110000E508000098
:10571000EF080000D7110000F90800002D0B000071
:10572000390B00003D0B0000430B00000D12000080
:10573000490B00000000000006000000000000000F
:10574000080000000000000001000000303132338A
:1057500034353637383961626364656630313233E7
:10576000343536373839414243444546464C415337
:105770004849415000000000000000000000000007
:105780004D1E0000611E00004F1D0000231E000082
:10579000C31A0000871B0000C11B0000FB1B000098
:1057A000C71A0000CB1A0000311C0000BD1C00000D
:1057B000D51C0000471C0000D11A0000EF1C00009F
:1057C0005D1C0000E11A0000D91A0000FFFF000074
:1057D000FFFFFFFF010101000020004000800240A8
:1057E000001000000400000001000000952E0000E1
:1057F000B92E0000C92E0000392F0000D92E00005C
:10580000A12E0000A52E0000A92E00000000FFFF21
:10581000DEC0ADDEFE011EF1DEC0ADDEFF011EF119
:105820004D41494E005B455252205D2053746F72CA
:1058300061676520696E697469616C697A61746910
:105840006F6E206661696C6564210D005B424F4F8D
:10585000545D2043616E646964617465206E6F7489
:1058600020666F756E640D005B424F4F545D20499A
:105870006E7374616C6C6174696F6E20746F2066F6
:105880006C6173682066696E69736865642E0D00CB
:105890005B424F4F545D20636865636B5F616E646C
:1058A0005F696E7374616C6C5F75706461746520A0
:1058B00025642E0D0A005B424F4F545D2043616EFC
:1058C0006469646174652076657269666963617490
:1058D000696F6E207375636365737366756C2E20D4
:1058E0005374617274696E6720696E7374616C6C55
:1058F0006174696F6E20746F20666C6173682E2E00
:105900002E0D005B5741524E5D205741524E494E7D
:10591000473A2068656164657220616464726573EA
:1059200073206973206E6F7420616C69676E6564A3
:1059300020746F206120736563746F7220626F75CD
:105940006E646172790D005B424F4F545D20466C6E
:10595000617368696E672E20256C75256320636FFF
:105960006D706C6574650D0A005B455252205D20B8
:10597000666C6173682070726F6772616D2066611A
:10598000696C65640D005B455252205D20666C6158
:10599000736820726561646261636B207665726909
:1059A0006669636174696F6E206661696C65640D18
:1059B000005B455252205D20556E61626C6520741B
:1059C0006F20616C6C6F63617465206865616465EC
:1059D000720D005B455252205D2050726F677261FC
:1059E0006D6D696E672068656164657220666169C6
:1059F0006C65640D005B455252205D2045726173F9
:105A00006520666C617368206661696C65642E2030
:105A100072657420636F64652025640D0A005B4223
:105A20004F4F545D20426F6F746C6F6164657220DC
:105A30006275696C642061743A2041756720313762
:105A400020323032302031333A30343A32310D00A6
:105A50005B455252205D20466C61736820696E6917
:105A60007469616C697A6174696F6E206661696CD2
:105A70006564210D005B424F4F545D205365617298
:105A80006368696E6720666F722063616E64696423
:105A900061746520696D6167652E2E2E0D005B4275
:105AA0004F4F545D204E65772061637469766520A1
:105AB0006669726D776172652069732076616C69C1
:105AC000640D0A0D005B424F4F545D2043757272A6
:105AD000656E742046572076657273696F6E206913
