:1000000000000420651200009D1200009F120000F5
:10001000A1120000A3120000A512000000000000C1
:10002000000000000000000000000000A712000017
:10003000A912000000000000AB120000AD12000089
:1000400029370000AF120000AF120000AF1200000D
:10005000AF120000AF120000AF120000AF1200009C
:10006000AF120000AF120000AF120000AF1200008C
:10007000AF120000B9380000AF120000AF1200004C
:10008000AF120000AF120000AF120000AF1200006C
:10009000AF120000AF120000AF120000AF1200005C
:1000A000AF120000AF120000AF120000AF1200004C
:1000B000AF120000AF1200000000000000000000BE
:1000C000AF120000AF120000AF120000AF1200002C
:1000D000AF120000AF120000AF120000AF1200001C
:1000E000AF120000AF120000AF12000000000000CD
:1000F00000000000AF12000000000000AF1200007E
:1001000010B5054C237833B9044B13B10448AFF351
:1001100000800123237010BDC003002000000000F8
:10012000785F00000C4B43B10C480D4910B5AFF39C
:1001300000800C48036823B910BD0A48036833B92E
:100140007047094B002BF7D0BDE810401847064B0D
:10015000002BF5D0184700BF00000000785F0000BA
:10016000C4030020C003002000000000154B002B3A
:1001700008BF134B9D46A3F5803A00218B460F46DE
:100180001348144A121A04F0AFFB0F4B002B00D097
:1001900098470E4B002B00D0984700200021040008
:1001A0000D000D48002802D00C4800F08FFF04F02D
:1001B000E3FA2000290001F03FF800F084FF00BFBF
:1001C0000000080000000420000000002D120000C4
:1001D000C003002098480020CD100000000000005F
:1001E00008B50A2001F00EF8FF21431E00F10902B4
:1001F00003F8011F9342FBD1014B186008BD00BFFB
:10020000DC0300206FF01500704703681B69184776
:1002100003689B69184703689B6A184700290CBF4D
:100220006FF0180000207047012070476FF0150034
:1002300070476FF0150070477047002070470368E3
:1002400001221B6900211847036800221B6911461F
:10025000184700000A4619B1024B00211B681847D5
:10026000704700BF040200206C22002104F03CBB58
:1002700010B16C21FFF7EEBF704700000023036050
:100280004360B9B9184B8360184BC360184B0361C6
:10029000184B4361184B8361184BC361184B0362C1
:1002A00003F17453A3F52303A3F6924343628166DB
:1002B00000207047134B8360134BC36003F17943F5
:1002C00003F5740303F501630361104B4361104BA5
:1002D000836103F1D14303F5C01303F51E63C361CA
:1002E0000C4B03620C4BE1E767E6096A85AE67BB1E
:1002F00072F36E3C3AF54FA57F520E518C68059B08
:10030000ABD9831FD89E05C107D57C3639590EF766
:10031000310BC0FFA78FF964A44FFABEFFF7AEBF41
:100320002DE9F04FCBB000F1080300931A460023EB
:1003300002A852F8044B40F823400133082BF7D1B0
:1003400002AC94E85004059BDDF824B0069D089F9C
:10035000DDF81CC00193ADF118024FF0000EBEF1A4
:100360000F0F62D84B7891F800901B0443EA09689C
:10037000CB7848EA030391F8028043EA0823136428
:10038000354B53F82E301846136C4FEAF5281844B5
:1003900088EAB5188CEA070388EA75682B40804420
:1003A0007B409844019BCDF804A0D84443441846B0
:1003B00046EA04094FEA743306EA040B83EAB403FD
:1003C00009EA0A0949EA0B0983EAB4530EF1010E5E
:1003D0004B44BEF1400F434401F1040102F1040219
:1003E000BB461BD1029309970690CDF820C0079514
:1003F00003940496CDF814A00023009A02A9126871
:1004000051F823100A440099013341F8042B082BBA
:100410000091F2D100204BB0BDE8F08FB2466746A4
:100420002646AC461C46054699E7936BD2F80490E5
:100430004FEAF34888EA734888EA9328536A1846D3
:10044000136818444FEAB94383EAF913804483EAF6
:10045000D90908EB090392E7745400002DE9F04133
:1004600005460F46144612B90020BDE8F081036826
:1004700003F03F0013449A422B6082BF6B68013344
:100480006B6008B3C0F14006B24216D305F12808EC
:100490003246404404F003FA41462846FFF740FF45
:1004A0000028E2D13744A61B3446311B3F2C394487
:1004B0000CD8002CD8D00F460020283522463946CB
:1004C000284404F0ECF9CFE71646EDE72846FFF79D
:1004D00027FF0028C9D1403CE7E7FFF7BFBF03680B
:1004E00070B503F03F030446581C2344802238288B
:1004F0000D4683F8282004F1280674D8C0F138028C
:100500000021304404F0F0F9236861685A0F42EA90
:10051000C102110EDB0084F86010110C84F8611028
:1005200084F86320110A1A0E84F864201A0C84F8E7
:1005300065201A0A84F8621084F8662084F867300F
:1005400031462046FFF7ECFE00284BD1E37A2B70B2
:1005500063896B70A3681B0AAB70A368EB70E37BC5
:100560002B71E3896B71E3681B0AAB71E368EB7174
:10057000E37C2B72638A6B7223691B0AAB7223695B
:10058000EB72E37D2B73E38A6B7363691B0AAB73B6
:100590006369EB73E37E2B74638B6B74A3691B0A33
:1005A000AB74A369EB74E37F2B75E38B6B75E36925
:1005B0001B0AAB75E369EB7594F823302B76638CDB
:1005C0006B76236A1B0AAB76236AEB76A36E4BB974
:1005D00094F827302B77E38C6B77636A1B0AAB7731
:1005E000636AEB7770BDC0F140020021304404F033
:1005F0007BF931462046FFF793FE0028F2D10146F1
:10060000382230467EE7FFF76ABF08B510461A4623
:1006100004F045F9002008BD08B590F900305A1CD7
:1006200004D120220F49104800F098FA61B11F2B25
:1006300086BF03F01F030D494FF0A041012202FACB
:1006400003F3C1F8083508BD1F2B86BF03F01F0355
:1006500006494FF0A041012202FA03F3C1F80C351C
:1006600008BD00BF74550000AF55000000030050E6
:1006700070B50E460446154601F0E6F801360DD079
:1006800029462046FFF7C8FF2046012101F022F944
:1006900020460021BDE8704001F0FAB870BD00228C
:1006A000FFF7E6BF2DE9F74FD0F804A09AF83A30EB
:1006B0000446002B46D103685B68984763681B6A51
:1006C00098423FD0DAF82030DAF80840CAF8200023
:1006D000A0EB0308DAF80C30314808EA030884423A
:1006E00046464FF0000727D0DAE90A239AF83BB0D4
:1006F000A8FB0089CDE900230025BBF1000F2BD01A
:100700005A464046494604F009FDDDE9002312EB54
:10071000080243EB090390465A46994606460F469F
:1007200004F008FDB8EB000069EB0101A94208BF25
:10073000A0420AD2CAE90A01DAE90C23B6185F41DD
:10074000CAE90C6703B0BDE8F08F013647F1000736
:10075000001B61EB0501EDE722462B46404649466A
:1007600004F0F4FC224606460F46404649462B4616
:1007700004F0ECFCDDE9008918EB020849EB030901
:10078000A94508BFA04502D2CAE90A89D4E70136C3
:1007900047F10007B8EB040869EB0509F4E700BF6F
:1007A00040420F00824206D98A420BD9884294BF48
:1007B000002001207047884206D98A428CBF002061
:1007C0000120704701207047002070472DE9F14F4C
:1007D000476897F83A300646002B60D197F83930D1
:1007E000002B5CD1FFF75EFF75686B68002B59D05A
:1007F000D5E90C89D3E90001894508BF804505D3B7
:1008000033685B6901B0BDE8F04F1847D5E90623AE
:10081000B0EB080861EB09094B4508BF42452C695C
:1008200006D3AB68254A93420FD1444528BF4446BE
:100830002A6A3B6A1444EA681440A34221D140F278
:100840001B121F491F4800F089F995F83B20DFF87B
:1008500078A04FF0000B7AB14046494604F06AFC9C
:1008600010EB0A0041EB0B01144A002304F06EFC6C
:10087000844228BF0446DBE7A3FB080103FB091100
:10088000EEE7336820461B69984733685B689847F2
:1008900022460146386AFFF785FF0028B0D101B033
:1008A000BDE8F08F3B69386AFA68184433681B6901
:1008B000104001B0BDE8F04F184700BF40420F00A4
:1008C0001C5600003C5600003F420F002DE9F04F3F
:1008D000436893F8382087B00546002A6CD193F816
:1008E0003A30002B68D103681B6898472B68DB6996
:1008F0009847066836B93249324800963346324640
:1009000000F0FEFA1F23012202FA03F18E425FFA81
:1009100083FB02D0013BF7D19B46D0F804A0AAF19B
:1009200004031C2B05D9002300931A4626492748A7
:10093000E6E7072716F1FF3007FA03F7244C4FF0DC
:10094000000343F1FF313246C4FB070104F0FEFB14
:100950006C682A6800232360636052680593CDE9C0
:100960000201904720626C684FF000084FF00009C8
:100970005246C4E90A89A66084F83BB001200021F0
:1009800004F0D8FBDDE90223C4E90623059B84F8C3
:10099000393084F83A3001380123E0602761284675
:1009A000C4E90C8984F83830FFF77CFE284607B08C
:1009B000BDE8F04FFFF70ABF07B0BDE8F08F00BFFA
:1009C000C75500000E010480E055000005010480B9
:1009D00040420F0070B5044600F07AF92368DB68E6
:1009E0009847636893F83A201AB1BDE8704000F068
:1009F00085B9012283F8392063685B68A3B120467A
:100A0000FFF750FE65686E68D5E90C01D6E9002352
:100A1000994208BF904207D3F3686B602B68002BA4
:100A2000EAD0B0689847E7E76368002283F8392086
:100A30002046FFF7CBFED8E738B50446FFF746FF60
:100A400000F046F92046FFF72DFE6368D3E90C4518
:100A500000F054F92046294638BD08B5FFF7ECFFF1
:100A600008BD0000024B00221A7001F031BD00BF2A
:100A70009008002008B501F097FC024B01221A7083
:100A800008BD00BF90080020004870476056000075
:100A9000024B1B680BB10248184770470802002040
:100AA0006056000091F90C2091F9041001F05CBA35
:100AB00003F070BF03F0CCBF03F01EBFF0B572B6F9
:100AC000224A234F002313604FF0E0224FF0FF36FD
:100AD000516801F00F0101311D469A0002F1604298
:100AE00002F561424FEAC30EC2F88060C2F880612D
:100AF000002202EB0E043C440132082A84F8005321
:100B0000F7D101339942E8DC124B4FF020625A6072
:100B100040F2FA529860DA6000221D6111469C187A
:100B200001320C2A2176FAD14FF0FF3259629A62D3
:100B3000094ADA621F221A6341680368002282F3BD
:100B400014889D4682F310880847F0BD10E000E04D
:100B500000E100E000ED00E0020000C007B50B4638
:100B6000009201460022014800F0CAF94401FF80CA
:100B700008B5202201490248FFF7F0FF7455000034
:100B8000AF55000083B500F0A3F80D2101A8FFF7D1
:100B900086FD2C4C2C4D04269DF904305F1C01D1A0
:100BA000FFF7E6FF1F2B86BF03F01F0321464FF020
:100BB000A041012202FA03F3C1F80835284600F0EB
:100BC00042FB9DF90430581CEAD01F2B86BF03F06E
:100BD0001F0321464FF0A041012202FA03F3C1F89E
:100BE0000C35284600F02FFB013ED5D1174F0426C7
:100BF0009DF90430591CD3D01F2B86BF03F01F036F
:100C000021464FF0A041012202FA03F3C1F8083552
:100C1000384600F018FB9DF904305A1CC0D01F2B39
:100C200086BF03F01F0321464FF0A041012202FAC4
:100C300003F3C1F80C35384600F005FB013ED7D16F
:100C4000A9E700BF00030050F0490200801A060027
:100C500010B5014604460022022000F0B9FA00F067
:100C600037F8204604F0C0F821460246022000F082
:100C7000AFFABDE8104000F041B8000000B5A3B0E5
:100C80000B460246842101A804F0E2F8832806D925
:100C9000074B1A681B79CDF883208DF88730002820
:100CA00002DD01A8FFF7D4FF23B05DF804FB00BF0D
:100CB0008C5600000FB407B504A951F8040B01913C
:100CC000FFF7DCFF03B05DF804EB04B070470000F1
:100CD00008B500F017FC064A1368591C04D13F22DE
:100CE00004490548FFF73AFF0133136008BD00BF10
:100CF0002004002091560000BB560000044A1368EF
:100D000023B1013B13600BB900F004BC704700BF76
:100D10002004002070B5264C90B034EA200428BF8F
:100D200004460D46164600214022684603F0DCFDCD
:100D3000204B00942344012B029505D91E4B9C4265
:100D400002D0033B9C422ED1EB6B01936B6B07935C
:100D5000FFF7BEFF194A13680133012B13600BD153
:100D60006D460FCD164C0FC40FCD0FC40FCD0FC461
:100D700095E80F0084E80F006C460FCC114D0FC5AD
:100D80000FCC0FC50FCC0FC594E80F0085E80F00FE
:100D90000D4B1B6813B1A5F130009847FFF7AEFF6C
:100DA000002010B070BD0196CDF81CD0D0E700BF78
:100DB0000101FF80C2FE007F4001FF80240400206B
:100DC0003004002070040020280400202DE9F041A8
:100DD0002E4C0E462168C1F34173032B0CBF4D42CC
:100DE0008DB2C1F307438046174629482A46FFF7CC
:100DF00061FF6FF498731D44132D0FD8DFE805F0E1
:100E00000A2D3033363C393F0E0E0E0E0E0E0E0EEE
:100E10000E0E0E42A1681F48FFF74CFF4046FFF739
:100E200017FF61681C48FFF745FF4EB11B48FFF7ED
:100E30000FFF3046FFF70CFF39461948FFF73AFF1E
:100E4000A1681848FFF736FF21681748FFF732FFFF
:100E50001648BDE8F041FFF72DBFA1681448DBE755
:100E6000A1681448D8E7A1681348D5E7A1681348DA
:100E7000D2E7A1681248CFE7A1681248CCE7A16881
:100E80001148C9E71148FFF715FFC7E770040020B4
:100E900069570000BA5700006258000073580000FC
:100EA0007B5800007F58000093580000E058000075
:100EB000D0570000E0570000EF5700000258000034
:100EC000165800002A580000395800004F580000FA
:100ED00010B50A4C00F13C010346002013F8012B29
:100EE00080EA0260082200284FEA4000B8BF604054
:100EF000013AF8D18B42F1D110BD00BFB71DC1043A
:100F000080B50E461F461146254A0125D2E84F4FAF
:100F1000C2E8435FE4B23CB97246FFF7FBFE029AB7
:100F200039463046FFF752FF1E4E1F481F4C1F4DDB
:100F3000FFF7CEFFD6F8BC30984208BFD6F8B430E1
:100F40001A480CBF0133012363630023A363FFF737
:100F5000BFFFE063FFF7BCFE0FCD134C0FC40FCDF6
:100F60000FC40FCD0FC495E80F0084E80F00FFF702
:100F7000C5FE0F48FFF79EFED6F8B410002902DD2B
:100F80000C48FFF797FEBFF34F8F0B490B4BCA6816
:100F900002F4E0621343CB60BFF34F8F00BFFDE765
:100FA0002C0400200001002080010020700400209B
:100FB000EC5600001F57000000ED00E00400FA05A9
:100FC0006FF01C0070476FF01500704701207047EC
:100FD0000020704770470000F8B5074E15460C46D4
:100FE0008F18BC4205D014F8011B304601F05CF9A3
:100FF000F7E72846F8BD00BF7806002038B58DB267
:1010000015F0010405D0084801F086F9041C18BF4A
:101010000124EB0605D5044801F09EF908B144F01F
:101020001004204638BD00BF7806002010B50446E5
:1010300003F0CEFB204610BD10B50C462AB1044883
:1010400001F0F0F82070012010BD104610BD00BF67
:101050007806002038B5084B0360084B1B6804462F
:10106000154633B90648FFF71DFD2946044801F02F
:101070005FF8204638BD00BF04590000E406002098
:10108000780600200020704700207047074A084972
:1010900013681844884289BF064B10600C224FF039
:1010A000FF308CBF1A601846704700BF0C03002049
:1010B00000F003209448002008B508B1FFF762FD56
:1010C000FEE70120704708B5FFF7F6FF01207047E3
:1010D0007047704708B5FFF7FBFF08BD08B5FFF77D
:1010E000F8FF08BD08B5037803F00303012B10D007
:1010F000037803F00302012A0BD02AB140F29D626B
:1011000005490648FFF72AFD43F00203037001205A
:1011100008BD002008BD00BF8F590000BB5900006A
:1011200008B5037803F00302022A05D040F2A66254
:1011300004490548FFF712FD23F0030343F00103C0
:10114000037008BD8F590000D95900003F2870B5C1
:1011500004462EDC184D55F820305A1C13D10228B5
:1011600011DCFFF791FF034658B92046FFF78AFFCD
:10117000034630B9114E3378BFF35B8FDB0704D5DC
:101180000F4B45F82430184670BD3046FFF7AAFFD4
:101190000028F5D04FF416520A490948FFF75AFFC4
:1011A0003046FFF7BDFF084A08490548FFF789FFA9
:1011B000E6E70023E7E700BF0C020020B0040020B0
:1011C000B40400205859000000020020D50F000090
:1011D00038B50C461546FFF7B9FF38B903F0C6FA23
:1011E000092303604FF0FF34204638BD03682146D1
:1011F000DB682A469847041EF6DA03F0B7FA644221
:101200000460EFE713B5044603F0DAFA034628B9A1
:101210000090224602490348FFF772FE02B010BD5B
:10122000705900001F0101807047704708B500F039
:10123000D7FBFFF7FAFF08BD08B5FFF7F5FFBDE8DC
:10124000084003F007B970B50446FFF71DFC0646D9
:10125000FFF703FC05463046FFF7FFFB401BA042AB
:10126000F9D370BD0749084A084B9B1A03DD043BBC
:10127000C858D050FBDC06488047064880470648DF
:1012800000470000845F000000020020C00300202F
:10129000E1120000B91900006D010000FEE7FEE751
:1012A000FEE7FEE7FEE7FEE7FEE7FEE7FEE7FEE716
:1012B0001030024B43F82010704700BF00000020A0
:1012C000054B1B68082B01BF044B1868B0FA80F06F
:1012D000400918BF00207047300100103401001091
:1012E00008B5FFF7EDFF40B14FF080430022C3F88F
:1012F0000C21C3F81021C3F83825FFF7E1FF0028BF
:1013000046D04FF08052714BD2F80414C3F8201528
:10131000D2F80814C3F82415D2F80C14C3F8281511
:10132000D2F81014C3F82C15D2F81414C3F83015E1
:10133000D2F81814C3F83415D2F81C14C3F84015A9
:10134000D2F82014C3F84415D2F82414C3F8481571
:10135000D2F82814C3F84C15D2F82C14C3F8501541
:10136000D2F83014C3F85415D2F83414C3F8601509
:10137000D2F83814C3F86415D2F83C14C3F86815D1
:10138000D2F84014C3F86C15D2F84424C3F8702581
:10139000FFF796FF10B14E4B4E4A1A60FFF790FFD1
:1013A00018B14D4BFB22C3F81825FFF789FF48B150
:1013B0004A494B4B0A681B6822F00F0203F00F03E7
:1013C00013430B60FFF77CFF18B1464B4FF40072DC
:1013D0001A60FFF775FF48B14FF08043D3F800243F
:1013E000D20744BF6FF00102C3F800243E4AD2F88E
:1013F000883043F47003C2F88830BFF34F8FBFF3D7
:101400006F8F4FF01023D3F80022002A03DBD3F8AC
:101410000432002B2FDA354B0122C3F80425D3F810
:101420000024002AFBD04FF010221221C2F8001233
:10143000D3F80024002AFBD04FF010231222C3F867
:1014400004222A4B1A46D3F800140029FBD00021AD
:10145000C3F80415D2F80034002BFBD0BFF34F8F34
:101460002149234BCA6802F4E0621343CB60BFF307
:101470004F8F00BFFDE71F4B1F4A1A604FF080439C
:1014800001220021C3F81825C3F804119A60D3F88B
:101490000421002AFBD01949CA6842F08072CA6050
:1014A000D3F85C2542F48032C3F85C25D3F85C2580
:1014B00042F00302C3F85C254FF0A04340F2013232
:1014C000C3F848270E4B00221A6108BD00C0004037
:1014D0008C5600404881030000F00040E40E0040BC
:1014E000580200104096024000ED00E000E001408C
:1014F0000400FA05100300200090D003F0ED00E096
:10150000000004E0024803780BB101F07FB8704797
:1015100014030020024B012200201A7001F084B84D
:10152000140300200B4B187810B5002288B10A482C
:101530001A704FF08051C2604C690B6907494260D4
:1015400063438260036101F028FD003018BF012071
:10155000404210BD1503002098030020FC5A0000F3
:10156000002070472DE9F0410E4602F0FDF90D4FC5
:10157000DFF8348005460424401BB84201D8042C0F
:1015800005D0201C18BF01204042BDE8F081002397
:1015900001223146404601F03FFD044602F0E4F9E5
:1015A000EAE700BF3F0D0300980300202DE9F04F4C
:1015B00085B03ABB4FF0FF3005B0BDE8F08F2B6827
:1015C000039302F0D1F906EB050B8246002300934A
:1015D00003AA04235946404601F0E8FC044602F001
:1015E000C3F9A0EB0A00484509D90435002CE1D124
:1015F000BD42E4D1201C18BF01204042DCE7042C8E
:10160000E4D0F2E723F00303D71815460E248E1A10
:10161000DFF80880DFF80890EAE700BF98030020B1
:101620003F0D0300024B1869DB68C01A704700BF0A
:1016300098030020064BDA688A4205D81A6991425D
:1016400002D25B68186870474FF0FF30704700BFE8
:10165000980300200420704700207047104B10B5FD
:1016600002460446D3E9000103F058FD002100F0D2
:10167000010050EA010312D00A4B1A5D910706D50A
:10168000D20604D42046BDE8104001F0E5BD1B5D44
:10169000DB0604D52046BDE8104001F02DBF10BD8B
:1016A000A8050020780500201F288BBF00F01F032D
:1016B0000346174A4FF0A04203F5E07370B552F8A5
:1016C0002330C3F30143032B124B02460446D3E9F4
:1016D00000010CBF0125022503F020FD002100F0D0
:1016E000010050EA010311D00B4B012D1B5D02D10B
:1016F0005A0602D470BD9B0608D5084B084A1B68E1
:1017000052F824002946BDE87040184770BD00BF5C
:1017100000030050B005002078050020B805002027
:10172000B804002073B5434D434E2B5C13F0010FFA
:10173000044601D1DB0671D52B5D980704D5C3F3B0
:101740000013DAB2002A4FD09DF8063003F0FD03F3
:101750006FF300038DF8063003238DF804302B5D02
:10176000C3F38103DAB2012A02D0032A18BF00238F
:101770008DF805302B5DD90626D5304A01A92046C3
:1017800001F0D0FD2E4B2246D3E9000103F0C6FC48
:10179000002100F0010050EA010308D02B5D5A0639
:1017A00001D49B0603D50121204601F039FE2246D3
:1017B0000120002103F0BEFCD6E9002310431943A9
:1017C000C6E9000102B070BD1F2C23469DF805201C
:1017D00086BF1C4904F01F034FF0A04103F5E073DE
:1017E000920041F82320E2E71F2C8DF8063088BFD5
:1017F000144BADF8042094BF4FF0A04304F01F0237
:10180000D3F8043598BF2246D34003F0010301A961
:1018100020468DF8053001F0ABFCC8E702460021F8
:10182000012003F087FCD6E9002322EA000023EA26
:101830000101C5E778050020A8050020A9160000D1
:10184000B0050020000300504B1C10B50446017089
:1018500014D0C9B22F2904D9532209490948FFF7E6
:101860007DF909490620FFF723FD01F03FFC0749F8
:1018700094F900208B5C43F001038B5410BD00BF32
:10188000185A00005D5A00006D35000078050020F0
:1018900038B5044690F90000431C0D4604D1B2222D
:1018A00009490A48FFF75AF9C0B2FFF7D7FE94F981
:1018B0000000074B1A5C65F383021A54C0B2BDE8FE
:1018C0003840FFF72FBF00BF185A0000AF55000087
:1018D0007805002038B5044690F90000431C0D46F9
:1018E00004D1BD2209490A48FFF738F9C0B2FFF711
:1018F000B5FE94F90000074B1A5C65F341021A54D7
:10190000C0B2BDE83840FFF70DBF00BF185A000055
:10191000AF5500007805002070B5254E0446002321
:1019200016F933506A1C06EBC30011D090F9012060
:10193000B2F1FF3F0CD0A5421ED18A421CD14068B3
:101940001C4B03F8104003EB4003451C59702DD18C
:10195000184B93F9000084421A4603D193F90130E1
:101960008B420BD092F902309C420BD192F903507A
:101970008D4207D1012070BD0133D1E7002070BD39
:1019800000230CE0013003D192F901000130F7D0BF
:101990000133EFD192F903300133EBD1012302F887
:1019A000134002EB43021846517070BD70BD00BF7A
:1019B000105A000016030020064A0748002350F87A
:1019C000231042F823100133402BF8D1034B9A60C7
:1019D000704700BF000000200000000000ED00E0A4
:1019E00007B5052101A8FEF75AFE9DF904305A1CDF
:1019F00004D1202209490A48FFF7B0F81F2B86BFFF
:101A000003F01F0307494FF0A041012202FA03F33C
:101A1000C1F80C3503B05DF804FB00BF745500003D
:101A2000AF550000000300500023435082B04358DC
:101A30000193019B02B07047074A282358431318AB
:101A40000021597413581A6A586A1AB1800701D5CF
:101A5000D8691047704700BF24060020074A282392
:101A6000584313180021597313581A6A596A22B13E
:101A7000C90702D50121D869104770472406002004
:101A8000084A2823584313180021D973597313584F
:101A90001A6B596B22B1490702D50421996310478B
:101AA000704700BF24060020124B53F82020124B31
:101AB00010B54FF4A671C2F8083304461046FFF77C
:101AC000B3FF4FF488711046FFF7AEFFD2F8003233
:101AD00023F02003C2F80032084B282101FB043414
:101AE00001232374002384F824301023C2F8043324
:101AF00010BD00BFE05A00001000080024060020BE
:101B00002DE9F347544F57F82060D6F810310446BA
:101B1000D3B14FF488713046FFF786FF28254F4830
:101B200005FB04F142188146137C002B46D00023AC
:101B3000137493734358DA6B196C2AB1C90503D532
:101B40004FF480715964904757F82450D5F84C31C0
:101B5000FBB1D5F81031E3B94FF4A6712846FFF771
:101B600063FF3E4828236343C11804338A7C82F014
:101B7000010213440344086AC5F83435421C4FF08F
:101B80000103C5F8383504D08A69032A5BD901F00E
:101B9000B9FBD5F8203173B14FF490712846FFF7A7
:101BA00043FF002C52D12E4B01221A702D4B4FF4C3
:101BB0008012C3F8002102B0BDE8F087957C85F063
:101BC00001039374D6F83C35002BBDD001EB05081A
:101BD0001D44033501F1180608F103080D440644BD
:101BE00080440544924614E001A9DAF8140000F09C
:101BF00089FD80B118F8013F037001A9DAF81400DB
:101C000000F0AAFD56E8002F013A46E80023002B19
:101C1000F8D1A845E8D1282303FB049999F811309D
:101C2000002B91D1012389F811303CB90E4A137071
:101C30000C4B4FF48012C3F8002185E7012C83D1AF
:101C40000A4B1C70F4E781F82430A2E7012CB2D1D2
:101C5000074B1C70AAE700BFE05A000024060020D2
:101C60007606002000E100E07406002075060020E2
:101C7000770600200120FFF743BF0020FFF740BF99
:101C80002DE9F041174B184F53F82040DFF85C80E6
:101C9000C4F80883282545437E190435706900F08F
:101CA0000FFD2023B3614FF4A6712046FFF7BCFE61
:101CB0004FF488712046FFF7B7FED4F8003243F0A6
:101CC0002003C4F8003200233D440122B374C4F859
:101CD00034553374C4F8382586F82430C4F80483A6
:101CE000BDE8F081E05A0000240600201000080042
:101CF00008B5174B1A7832B100201870154BDB7BF2
:101D0000F3B1FFF7BDFE144B1A781AB1002018701A
:101D1000FFF792FE114B1A7842B100221A700D4B58
:101D200093F8373001207BB1FFF7AAFE0C4B1A78ED
:101D30006AB100221A700120BDE80840FFF77CBE9E
:101D40001846FFF78BFEDEE7FFF788FEEEE708BDDB
:101D50007606002024060020740600207706002066
:101D6000750600202DE9F843044628B9574958481C
:101D700040F24E22FEF7F2FE41684D1C10D01F29A2
:101D800087BF01F01F03534A0B464FF0A0420120CA
:101D9000984003F5E073C2F80805032042F82300D9
:101DA000A268501C0CD01F2A8BBF02F01F031346E1
:101DB00048484FF0A04003F5E073002540F8235059
:101DC0002368454E56F82300C0F80C15C0F81425BA
:101DD000227D012A15D1E268511C0CD01F2A8BBF2D
:101DE00002F01F0111463B4D4FF0A04501F5E07197
:101DF000002745F821704FF0FF31C0F80815C0F8F2
:101E00001025364D2169282707FB03531A6A914292
:101E10004ED0187F01F03AFD20B140F27B222B49D1
:101E20002F48A7E7236807FB03531B6A013302D03F
:101E3000206901F011FA2069431C33D0294901F0CF
:101E400097F9082806D1206901F006FA254920698A
:101E500001F08EF910B140F29222E0E72368206988
:101E600056F823704FF0280808FB035207F58877CF
:101E700092F81C9001F038FA39460246484601F0C3
:101E8000CFFC10B14FF42672C9E7236808FB035357
:101E9000187F01F0E5FC10B140F29B22BFE72069FA
:101EA00001F010FA2368282202FB035523692B62F4
:101EB0002368217D56F82320637D0B43C2F86C35DF
:101EC000A369C2F82435BDE8F88300BF7F5A00003B
:101ED000C65A000000030050E05A0000240600200B
:101EE000CA5A00007C5A000070B5044628B94FF465
:101EF0003F7219491948FEF731FE0568184E28222D
:101F00006A43B118B258904202D190F82C3083B194
:101F10002046FFF727FF28236B432846F450002371
:101F200084F82C3094F82D304BB1BDE87040FFF7A9
:101F3000BBBD90F82D200B7C4AB95BB12846FFF75A
:101F40009FFE084B53F8253001221A6070BD0BB973
:101F50002846EAE770BD00BF7F5A0000C65A00005D
:101F600024060020E05A00002DE9F84F0F46904665
:101F7000044628B959495A4840F24332FEF7EEFD6B
:101F8000584B594D1A78002A5ED000221A7001F081
:101F9000E5F808B901F0AAF8544E5549DFF88891E0
:101FA0001420FFF785F9E02386F814334FF48013EB
:101FB000C6F88031212233604E490123484600F0A3
:101FC0006CFB0023C5F814902B604B4801F0FCFB20
:101FD000824620B14FF4597240494848CEE7484BF9
:101FE0004849DFF848B14FF0FF39C5F8209002208A
:101FF000C3F80893FFF75CF9042386F802A32122B3
:10200000C6F88031404933605846012300F045FB53
:10201000C5F828A0C5F83CB03C4801F0D5FB824685
:1020200010B140F27A32D7E7394BC5F848903949B8
:10203000C3F808932820FFF73BF94FF4807386F824
:1020400028A3C6F88431736041463846FFF764FC24
:1020500028234343EA18206096680136012E9660D3
:102060001AD000236375237523622B4B2B4AA26180
:102070009C424FF0FF326760C4F80880E260226142
:102080004FF0010301D1264A136084F82C3020461A
:10209000BDE8F84FFFF728BF224A52F82020082158
:1020A000C2F800150C334FF0FF31C2F80C151D4477
:1020B000C2F814154FF08051C2F824151046C2F82A
:1020C00044554FF49071C2F84865FFF7ADFC966037
:1020D000D2F81C31002BFBD0C3E700BF7F5A0000B1
:1020E000C65A00001A0300202406002000E100E088
:1020F000F11C0000BC05002040060020CA5A000068
:10210000002000407B1C0000F00500206806002035
:1021100000800240751C0000780600200050270057
:10212000E4060020E05A0000E0050020140600202C
:1021300008B528B940F20E4230493148FEF70EFD8D
:10214000B1F5166F35DBB1F5965F35DBB1F5165F8E
:1021500035DBB1F5615F34DBB1F5964F33DBB1F5BB
:10216000E14F32DBB1F5164F31DBB1F5614F30DBBA
:10217000B1F5963F30DBB1F5E13F30DBB1F5613FC2
:102180002FDB204B99422FDDB1F5E12F2FDBB1F58D
:10219000612F2FDB1C4B9942D4BF4FF070614FF081
:1021A0008051836999421EBF0123816180F82C30E0
:1021B00008BD4FF49E21F4E74FF41D21F1E71349C8
:1021C000EFE71349EDE71349EBE71349E9E7134953
:1021D000E7E74FF41D01E4E74FF46B01E1E7104935
:1021E000DFE74FF0EB71DCE74FF06C71D9E74FF0B0
:1021F0008061D6E74FF0E861D3E700BF7F5A000067
:10220000C65A00008FD003003F420F0000B01300F9
:102210000050270000F03A0000A04E0000C07500FA
:1022200000903A01F7B528B940F212521B491C48F8
:10223000FEF794FC0022046880F82D20194DFFF76A
:1022400053FE282303FB04535E697289F38892B21C
:102250009BB29A42F9D001A9304600F08DFA01A94B
:102260000746304600F0B3FA282303FB0453183323
:1022700053E8001F013143E80012002AF8D1282357
:1022800003FB045494F8243023B184F82420206AFA
:1022900001F038F8387803B0F0BD00BF7F5A000075
:1022A000C65A00002406002038B50D4628B940F271
:1022B000435215491548FEF751FC0468FFF714FE18
:1022C000134B53F82420D2F81C31002BFBD01046BE
:1022D0004FF48E71FFF7A8FB0E4928236343C818FB
:1022E0000C330B440124C2F844350573C2F8484549
:1022F0004FF490711046FFF797FB4FF48073C2F8CC
:102300000433946038BD00BF7F5A0000C65A0000F5
:10231000E05A00002406002010B528B940F26B52A4
:102320000A490B48FEF71AFC002280F82D200468A9
:10233000FFF7DAFD074B282202FB04346369588952
:10234000DB88C01A18BF012010BD00BF7F5A0000F3
:10235000C65A00002406002008B528B94FF4B1621F
:102360000B490C48FEF7FAFB02680B49282303FBD4
:1023700002135B7BDBB243B9084B53F82230D3F82E
:102380001C01003018BF012008BD002008BD00BF9F
:102390007F5A0000C65A000024060020E05A0000C0
:1023A00000487047E85A000073B5214E214A317841
:1023B000214C51B10023136013680093009B4FF42C
:1023C0008033C4F8083302B070BD1C4B01251D607A
:1023D0004FF48033C4F80833D4F8043523F00303F2
:1023E000C4F80435D4F8103523F00F0343F0040388
:1023F000C4F81035D4F8083543F00303C4F80835A1
:10240000C4F840151160136801930D49019B092020
:10241000FEF74EFF0B4B402283F809234FF4007266
:10242000C3F880211A60084B25601D603570CAE72B
:10243000E8060020409100400090004004900040D9
:10244000910A000000E100E044900040024B0122AC
:102450001A60D3F8000570474490004013B5044655
:10246000FEF736FC0A4AC2F84045D2F8043313F4AA
:10247000803308D107490B600B680193019B4FF42F
:102480008033C2F80433FEF739FC02B010BD00BF40
:102490000090004040910040024B4FF40072C3F89E
:1024A0000021704700E100E0024B4FF48032C3F896
:1024B0000823704700900040044B00221A6082B04D
:1024C0001B680193019B02B0704700BF4091004020
:1024D0000A4A01231360D360094B4FF48032C3F8DA
:1024E0000823084B4FF40072C3F88020BFF34F8FCE
:1024F000BFF36F8F044B00221A70704704900040A6
:102500000090004000E100E0E8060020014B43603D
:1025100000207047F05A00000846704700207047BE
:10252000024B1868003018BF01207047EC060020ED
:1025300008B5024800F0AEF8002008BDEC06002007
:1025400008B510461A4602F0AAF9002008BD00009E
:102550002DE9F041804686B014480E4615461F46C8
:1025600000F095F80446F0B9A54216D10F4800F0E6
:1025700091F8D8F8084064B118220021684602F0AA
:10258000B3F902238DF8003002960495059768464A
:10259000A047002006B0BDE8F08106EB043001F052
:1025A000ABF90134E0E71120F4E700BFEC060020AE
:1025B0002DE9F041044686B013480F4690461E466A
:1025C00000F065F80546E8B9B2084146384601F022
:1025D000ABF90D4800F05EF8A4688CB118222946CA
:1025E000684602F081F901238DF800300C9B0297B8
:1025F000684604960593A047284606B0BDE8F081DA
:102600002046FAE71120F8E7EC06002072B6054AEA
:102610001378191C18BF01210133017013700020B9
:10262000704700BFF0060020044B20B11A78013A31
:102630001A7000207047187062B6FAE7F0060020A2
:1026400000B550E8002F42EA010340E8003E9EF04A
:10265000000FF6D110465DF804FB00B550E8003FCE
:1026600003EA010240E8002E9EF0000FF6D110466A
:102670005DF804FB00B550E8003FA3EB010240E821
:10268000002E9EF0000FF6D110465DF804FB0121EC
:10269000FFF7D6BF0021FFF7E0BF10B561B1B2FB75
:1026A000F3F403FB1424A4B244B980E8120084605C
:1026B0008281C381204610BD0E2010BD092010BDAF
:1026C00082B050E8022FC188B2EB324F4FF00003C6
:1026D00017BF92B241EA014142EA014104E0426877
:1026E000B2EB324F08BF012340E80212002AE8D1C2
:1026F0008DF807309DF80730002B0CBF112000200B
:1027000002B0704737B550E8013F9DB2C4892544F7
:102710008489A54228BF2D1B0489A54202BFBFF3AF
:102720002F8F002207E0C5EA030540E80154002C82
:10273000E9D14FF001028DF803200193019B9DF830
:1027400003200B6002F0FF0322B10B8800681844DD
:1027500003B030BD1846FBE70A884B889A4209D17E
:1027600050E8012FC2EA024240E80123002BF7D1D2
:10277000012070470020704737B550E8023F1FFA2C
:10278000A3F5C488A54202BFBFF32F8F00220DE03E
:10279000C48925448489A54228BF2D1BC3EA054569
:1027A00040E80254002CE8D14FF001028DF80320DC
:1027B0000193019B9DF803200B6002F0FF0322B1FF
:1027C0004B880068184403B030BD1846FBE70A8800
:1027D0004B889A4209D150E8022FC2EA224240E8CF
:1027E0000223002BF7D10120704700207047000022
:1027F00070B5064E0546002456F824300BB1284625
:1028000098470134042CF7D170BD00BF00070020A9
:102810000B4A0C4B5188142000FB0131CB6833B9B3
:102820000420496810700122074800F0F5BB052319
:102830000649137002238B80012200230968F3E705
:102840001807002030070020AC0300206C07002090
:1028500007B5002305490093054A09680548082380
:1028600000F0A4FB03B05DF804FB00BF6C07002080
:10287000285B0000AC03002007B50023009301464D
:102880000823034A034800F091FB03B05DF804FB02
:10289000205B0000AC03002013B500230C4600931E
:1028A00001460423074A084800F080FB38B9074B6B
:1028B000142202FB04340123237402B010BD0E2045
:1028C000FBE700BF1C5B0000AC03002030070020CA
:1028D00037B50A480A4B42689C8819685388032513
:1028E000033305709BB2002000909B0001EB840134
:1028F000044800F05BFB03B030BD00BF18070020A8
:102900006C070020AC0300204388033300EB8303F3
:10291000994209D382884FF6FF739A4206D0008805
:10292000B0FA80F0400970470220704701207047DC
:10293000144A142303FB002070B50B6844680D464D
:1029400004F5805653B15C88033403EB8404A6423B
:1029500002D9236801330BD1002070BD0834F6E79B
:102960002C60012070BD6388033304EB8304EEE721
:1029700031462046FFF7C8FF0128F4D0F0D30228E3
:10298000EAD0E4E730070020436873B505460C46FB
:102990006BB3254AD1688B4229D31269934226D85A
:1029A00013F0030223D121490089098988421ED1ED
:1029B0002868996888421AD11D494868834203D91A
:1029C00000F5805083420ED38A6993420DD902F5F7
:1029D0008052934209D2012323800020B0FA80F074
:1029E000400902B070BD1346F6E70A20F6E700235F
:1029F00023801E462388012B01D90020F1E7019690
:102A000001A92088FFF794FF18B923880133238098
:102A1000F0E7019B2A6899689142F1D16B60034B02
:102A20001B892B81DDE700BFAC03002018070020C5
:102A3000300700202DE9F8431C461E4B1B78064644
:102A40000F4615467BB38AB384B3DFF870804FF02E
:102A50001409A388012B02D90A20BDE8F88309FBD9
:102A600003F318F803302BB92146A088FFF760FF65
:102A700020B92060A3880133A380EAE723681EB150
:102A8000998832889142EFD147B99A6885E80C005D
:102A9000094B1B892B810020BDE8F88319883A88EF
:102AA0009142E1D1F1E70220BDE8F8830520BDE8BD
:102AB000F88300BF1007002018070020300700200F
:102AC00008B5074B191D5888FFF732FF18B1BDE84C
:102AD0000840FFF7FDBEBDE80840FFF799BE00BF04
:102AE000180700202DE9F04FA04FDFF8A49289B01D
:102AF0000646B8463B6823B949469D48FFF73CFE69
:102B00003860D8F800502A78531E052B00F2EA816D
:102B1000DFE813F0060070007000020102015A01A4
:102B200026B1944B00225A60012425E02B79032B17
:102B30001ED8DFE803F016023C478F490B78022BC2
:102B4000084632D00B7D022B4FF0010340F00E827D
:102B500014225343C2180020C8545068FFF78CFE5B
:102B600003E001232B71FFF773FE002800F0CE80F5
:102B7000804B00225A600E241422002103A801F089
:102B8000B3FE41F61D539C4208BF0024D8F8003024
:102B900004941A78023A042A00F2C381DFE812F0A2
:102BA000A401B001D301DB01E2010023D0E77349A6
:102BB0007348002302222B718A800122096800F0E9
:102BC0002BFAD2E76D4C00262E7120686A4DFFF774
:102BD00053FE6C4BD4F800E05A8814235343EA1890
:102BE000EE5451682160A188C2F804E011810222EC
:102BF000A280BAE7B5F814A0DFF87CB1B6B1AA7D1F
:102C0000EB88022A06D9142101FB0AB1DA1C0889D3
:102C100002440A81142202FB0ABAC3F57F43BAF8C0
:102C20000A20FD331344AAF80A307DE7142303FB7E
:102C30000AB319895C68AB7D04EB8104062B05D8C7
:102C4000DFE803F0274D35431C5967000F24AA7DA8
:102C5000EB88022A06D9142101FB0AB1DA1C088983
:102C600002440A81142202FB0ABAC3F57F43BAF870
:102C70000A20FD331344AAF80A307DE7424843494D
:102C800000234360AB690360FFF77EFE002800F07D
:102C900027810223AB75002300930423EA18214601
:102CA000374800F083F9002830D00E24CFE72B6995
:102CB000002B14BF03230123AB750023009305F100
:102CC0000C02042304F10801EAE70123AB7500229A
:102CD000EB8800929B002A6904F10C01E0E7032ACB
:102CE0000CBF05230623AB7500230093042305F1D5
:102CF0000802E118D4E70623AB75244B1988224B50
:102D00005868FFF7C9FD04460028A0D109B0BDE806
:102D1000F08F41F61D549AE7002E7FF405AF2B7912
:102D2000012B37D005D3022B41F61D5418BF0F24B9
:102D300022E702232B71039604960596EB68039312
:102D40000DF10A0103A8FFF71FFE002800F0C8805C
:102D50000498BDF80A108388EB8003882B81FFF765
:102D60009BFD0446002C7FF407AFCFE72C07002023
:102D70005807002010070020300700206C070020B3
:102D8000AC03002018070020F40600207407002080
:102D900028070020DFF8F8A103AA53463146A81DF2
:102DA000FFF748FE044650B9BAF804100498FFF73C
:102DB00073FD04460A2CD5D141F61D54DCE6CAF851
:102DC0000060CAF80460F5E7002E7FF4ADAE6A4BF0
:102DD0001A7B5AB11E731A78013A062A00F28280D1
:102DE000DFE802F0495E6669806C77001A78072A8E
:102DF000F1D801A151F822F0192E0000D72D0000C2
:102E0000D72D00003F2E0000532E0000732E00002F
:102E1000732E00003B2E00001A89584901321A8196
:102E200000225A801A730A78B2FA82F252099A7210
:102E30000A7DB2FA82F25209DA72012207E05049A1
:102E400058688A884088033202448A8002221A70B5
:102E5000C1E74A4C5A884A49142505FB02420868D2
:102E6000546850608888108102228A800C60062293
:102E7000EDE70722EBE79A7A32B1404900229A72D5
:102E8000CA680AB9097C51B9DA7A62B10022DA72E9
:102E90003A4A116A39B992F8242022B101225A80A3
:102EA000FFF70EFE5DE700221A705A805A6083E732
:102EB000FFF70EFD55E7FFF7ABFC52E706221A704D
:102EC0002E4A5B88142101FB03235868FFF7D4FCCA
:102ED00047E707221A7000225A60FFF7B9FC40E763
:102EE0000A2449E60F2447E601228DF80C201A89AE
:102EF000ADF818209A88ADF81A20DB68059310E029
:102F000002228DF80C201A89ADF818209A88ADF8A5
:102F10001A20DA6805929B7D9A1F534253418DF81F
:102F20001C3003A8FFF764FC002649461548C8F882
:102F30000060FFF74CFC01211348FFF79BFB0028C2
:102F40007FF4D8ADE2E603228DF80C20DA88ADF8E4
:102F500018201A89CFE704228DF80C20DB88ADF801
:102F60001830DEE705238DF80C30DAE7074A1370D6
:102F70000023536020E700BF18070020300700201F
:102F80006C07002058070020680700201007002069
:102F9000780700204068FFF7A5BD0B4620B11BB1A4
:102FA000036011461B6818470E2070472DE9F04357
:102FB000DDF81C809646F0B1EAB1D0F800C0BCF153
:102FC000000F1BD0EBB14768D7F80490B3FBF9F7BB
:102FD00009FB1737AFB942EA010E1EF0030F07D104
:102FE000C768B94204D34C1E05691C44AC420BD9D6
:102FF0001020BDE8F0830E20BDE8F0830820BDE876
:10300000F0830920BDE8F083CDF81C80DCF80C408B
:10301000A446BDE8F0436047F0B5B8B1D0F800E091
:10302000BEF1000F14D0AAB14768D7F800C00CF168
:10303000FF370F4208D1C768B94205D34C1E056956
:103040000CFB0244AC4207D91020F0BD0E20F0BDAD
:103050000820F0BD0920F0BDDEF81040A446BDE810
:10306000F0406047FDF734BEFDF748BE00F18040F8
:1030700000F5C040002382B0036003680193019B08
:1030800002B0704703681F2B83BF03F01F03036068
:1030900001484FF0A04070470003005007B502AB55
:1030A00043F8040D1846FFF7EDFF019B00EB83008A
:1030B000D0F8003723F44033C0F80037D0F8003799
:1030C00043EA0141C0F8001703B05DF804FB0000BB
:1030D000054B4FF0FF32072843F8202084BF1B1810
:1030E00083F85820704700BF80070020174991F8E7
:1030F0006A3010B53BBBFF20CA180133302B82F871
:103100003000F9D10024E0B20134FFF7E1FF0C2CCC
:10311000F9D10F4B00224A669A800E4BE02083F8CB
:1031200006034020C3F8800118604FF4BE70FFF71B
:103130009DFF094B4FF00040C3F80403012381F8C1
:103140006A30104610BD082010BD00BF8007002067
:10315000E407002000E100E000600040034B93F82A
:103160006A00003018BF0120704700BF80070020B0
:1031700030B5374C2318024693F93000013085B042
:1031800064D18878002852D0002354F823500135A8
:103190004FEA830045D1A51800F1804000F5C040FA
:1031A00085F83030002544F82350D0F810550B78BE
:1031B0004C7825F499151B04240525F4F85504F4DE
:1031C000801403F44033C0F8105523431402D0F8A0
:1031D000105504F47C5423432B43C0F81035497830
:1031E000012928D104A840F80C2DFFF74BFF019BC3
:1031F0009940C0F8081504A840F8042DFFF742FFD5
:10320000039B03F5E073032140F82310D308114911
:1032100002F0070001228240C85C0243CA54002029
:1032200003E00133082BB0D1042005B030BDFE20EF
:1032300083F83000D3E704A840F8082DFFF722FFF9
:10324000029901238B40C0F80C35D4E70820ECE745
:1032500080070020E407002037B517490D18044601
:1032600095F83000072809D8FFF732FF95F930307C
:10327000124A03F5A273002042F823000B19FF2223
:103280000F4D83F83020E10804F0070301229A4033
:103290006B5C13420ED002A840F8044DFFF7F2FE1B
:1032A000019B03F5E073022440F823406B5C23EAA2
:1032B00002026A5403B030BD800700200060004065
:1032C000E4070020074B184490F930309B0003F1CD
:1032D000804303F5C043D3F8102542F00302C3F83E
:1032E0001025704780070020054B184490F93000E6
:1032F0008000C0B200F1804000F5C040704700BFC0
:1033000080070020064B1844012290F93030183312
:103310009B00DBB203F1804303F5C0431A607047A2
:1033200080070020F7B53C4C2318064693F930304F
:10333000002B6FDA8878C0F3400000280BBF082309
:1033400000230C250825AB4202D1042003B0F0BDB8
:1033500054F82370013745D1A7195DB287F8305072
:1033600044F8232010B9234483F858608B785A0717
:1033700018D4D80738D502A840F8086DFFF782FEA8
:10338000009B00EB8300D0F8003723F00203C0F865
:1033900000372248F20806F007070123BB40875C8C
:1033A0003B43835488780A7810F0020029D0AB00A0
:1033B00003F1804303F5C0433602D3F8101521F41E
:1033C0004F3121F44071C3F810151204D3F81015D1
:1033D00006F47C5602F4403216430E43C3F81065DF
:1033E0000020B3E70133AEE702A84A7840F8046D45
:1033F000FFF748FE019B03F5E073920040F823209D
:10340000C7E7083D2C4494F8606046EA821284F8CD
:1034100060209BE7082099E780070020E407002050
:1034200073B5224C2518064695F93020072A1ADD77
:10343000224492F858309B09032B10D102A840F87F
:10344000046DFFF71FFE019AD0F81035D340DB075B
:1034500007D402213046FFF721FE02B070BD012BD8
:10346000F7D00321F6E7D3B2072BF6D8930003F188
:10347000804303F5C043D3F8100540F00100C3F8C2
:10348000100502F14000800080B2FFF7EFFD002937
:10349000E3D095F9303054F82330002BDDD00123F0
:1034A00003FA02F2024BC3F80423D6E78007002098
:1034B000006000400E4B034493F93020072A02DDE0
:1034C0000021FFF7EBBDD3B2072B10D8930003F117
:1034D000804303F5C043D3F8101521F00101C3F870
:1034E0001015012303FA02F2024BC3F808237047B8
:1034F0008007002000600040F7B50446FFF7DAFFC0
:103500001749184E0B19E50893F93030DAB2072A3B
:103510009FBF03F5A273144A002042F8230004F071
:10352000070301229A40735D13420ED002A80227BE
:1035300040F8044DFFF7A6FD019B03F5E07340F84A
:103540002370735D23EA02027255214491F8300022
:10355000FFF7BEFDFF2381F8303003B0F0BD00BFA0
:1035600080070020E4070020006000402DE9F04FB4
:1035700089B00024614A624E624D02940394012195
:10358000A2F5C04052F8043B012B80B206D1D6F818
:1035900004330B4202D0FFF769FD0C43AA424FEA05
:1035A0004101EDD1584B1B68012B0ED14FF4BE7079
:1035B000FFF75CFD4FF0A04344F00044D3F8103512
:1035C0000293524BD3F81035039314F0FF0F34D10C
:1035D000002C80F28F8004AE0023049373604C4F64
:1035E0004FF0FF33069307934FF001080024254660
:1035F0007B1993F96020531C63D0D2B222F0C0092A
:1036000008AB4FEAD90003EB000B02F007011BF8EF
:10361000083C08FA01F10B4253D007EB0903920969
:1036200093F9303057F823A0BAF1000F21D1032AC3
:1036300047D1335C0B4333541DE0354F0126002541
:10364000344210D0AB0003F1804303F5C043D3F8FC
:103650001005D3F8101557F8253023B1C1F30141F7
:10366000C0F3052098470135082D4FEA4606E7D1FB
:10367000AEE7032ADDD001A8CDF80490FFF702FDE4
:10368000019B03F5E07350F823301BF8180C084237
:10369000C3F3014305D0022B13D1032A0BD11146EA
:1036A00004E0032B0DD1032A05D102214846FFF780
:1036B000F5FC0134E4B2BAF1000F02D011464846DD
:1036C000D0470135042D93D1A4B14FF0A043029906
:1036D000D3F8102503F540739142D3F8103502D189
:1036E0000399994206D002920393049A059B06928D
:1036F00007937BE709B0BDE8F08F00BF0061004091
:1037000000600040206100407C61004000030050E8
:103710008007002000F180431A68002A1BBF0022A6
:10372000012000201A6070474FF0804310B5D3F895
:103730000443620707D54FF48470FFF7EBFF10B125
:103740001E4B1B689847A30608D54FF48A70FFF7F5
:10375000E1FF18B11A4B00201B689847600608D596
:103760004FF48C70FFF7D6FF18B1154B01201B6882
:103770009847210608D54FF48E70FFF7CBFF18B19C
:10378000104B00201B689847E20508D54FF4907055
:10379000FFF7C0FF18B10B4B01201B689847A3052A
:1037A0000AD54FF49270FFF7B5FF28B1054B022000
:1037B0001B68BDE81040184710BD00BFEC07002093
:1037C000F0070020F40700202DE9F84F124D134FA9
:1037D00080464FF0000A04264FF001095FFA8AFB89
:1037E000002009FA0BF4FFF73DFC2C4208D03B689F
:1037F00014EA030201BF23433B6088F800B0164679
:103800000020FFF731FC1EB1A5430AF1010AE5D102
:103810003046BDE8F88F00BFFFFF0F00F80700201B
:1038200010B5A1B19AB101238340C3F3130484B14D
:103830000A4C246823420ED0C00000F1804000F5FD
:10384000F830C0F81015C0F81425002010BD0E2067
:1038500010BD072010BD082010BD00BFF8070020D4
:10386000012303FA00F0C0F313031BB1054B1B68DF
:10387000184204D0044BC3F8040500207047082008
:10388000704700BFF807002000F00140012303FA51
:1038900000F0C0F313031BB1054B1B68184204D0A2
:1038A000044BC3F80805002070470820704700BF8C
:1038B000F807002000F0014007B5084B00221A600D
:1038C0001B680193019B064BD3F80805054BC0B25A
:1038D0001B68984703B05DF804FB00BF00D10040AF
:1038E00000D00040FC070020024AD2F80034002B30
:1038F000FBD0704700E001400A4908B50223C1F837
:103900000435BFF36F8FBFF34F8FC1F80805FFF782
:10391000EBFF0023C1F80435BFF36F8FBFF34F8F68
:1039200008BD00BF00E0014070B50E4D16460122F3
:10393000C5F80425BFF36F8FBFF34F8F0024B44247
:1039400007D10023C5F80435BFF36F8FBFF34F8F46
:1039500070BD51F8243040F82430FFF7C5FF013422
:10396000EDE700BF00E00140014BD3F804057047CC
:103970000010014010B50A4C01444FF0FF3388425B
:1039800001D1D84310BD10F8012B5340082213F089
:10399000010F4FEA530318BF6340013AF7D1EEE736
:1039A0002083B8ED48B14378027843EA0222837855
:1039B000C07843EA022340EA0320704730B500286C
:1039C00037D0047800232202002544781D43144395
:1039D0002B0243EA14632202002584781D4314431A
:1039E0002B0243EA146322020025C4781D431443CA
:1039F0002B0243EA14632202002504791D43144379
:103A00002B0243EA14632202002544791D43144328
:103A10002B0243EA1463220200258479C0791D43F6
:103A200014432B0243EA146322020021104319437A
:103A300030BD0020002130BD30B10B0AC170837051
:103A40000B0C090E43700170704768B1110AC27106
:103A50008171110C120E02711A0AC37082701A0C55
:103A60001B0E417142700370704770B50D460446DD
:103A700008B9022070BD0029FBD06C21FFF77AFF46
:103A8000064604F16C00FFF78DFF8642F1D104F188
:103A90000800FFF793FFC5E9000104F11000FFF7EC
:103AA0008DFF04F11803C5E9020105F1100204F1CC
:103AB000380153F8040B42F8040B8B42F9D104F19E
:103AC00058033035683453F8042B45F8042BA342CF
:103AD000F9D1002070BD000038B50C46054600281D
:103AE00041D000293FD00B686F2B3CD970220021B8
:103AF000A06800F0F9FE1D49A068FFF79DFFA068CF
:103B000002210430FFF798FFA068D5E900230830B0
:103B1000FFF79BFFA068D5E902231030FFF795FF60
:103B2000A26805F11003183205F1300153F8040BB7
:103B300042F8040B8B42F9D1A2684035583253F851
:103B4000041B42F8041BAB42F9D16C21A068FFF7BB
:103B500011FFA368014603F16C00FFF76DFF7023AE
:103B60006360002038BD022038BD00BFD4B3515A75
:103B7000014B1860002070470008002008B5044B76
:103B80001B6813B11B68984708BD022008BD00BF21
:103B900000080020044B1B6810B51BB112B19B69D3
:103BA000984710BD022010BD0008002008B5044B46
:103BB0001B681BB110B11B6A984708BD022008BDE5
:103BC0000008002008B5044B1B681BB111B15B6AEB
:103BD000984708BD022008BD00080020C820704793
:103BE000024B1B6803B11847704700BF0408002050
:103BF0002DE9F047044688464FF408200021174677
:103C000000F002FA012106464FF4801000F0FCF9A2
:103C1000A0EB060A0121814604FB0A6000F0F4F9DA
:103C200001210546504400F0EFF9013607D0B9F103
:103C3000FF3F04D06A1C02D0431C00D03CB14FF0BF
:103C4000FF33C8F8003002203B60BDE8F087401B1E
:103C5000C8F8005038602046BDE8F08738B5054602
:103C600000F074F9044628B9034B1D60FFF7B8FF54
:103C7000204638BD0224FBE70408002001207047DD
:103C80002DE9F7434FF0FF331646022400930193CA
:103C90000D4629B122B1936813B108B960F30F043E
:103CA0000FFA84F8B8F1000F39D101AA6946FFF77D
:103CB0009FFF0446A86800F0EFF907467020DDF882
:103CC000009000F0E9F938444146484400F09CF97E
:103CD000009923B2411A23B9174B019A914288BF28
:103CE0001C4623B223B9009800F0B0F910B10224A9
:103CF00023B223B931462846FFF7EEFE044623B22D
:103D00004BB9702000F0C8F900990246B06800F085
:103D100029F938B10224204603B0BDE8F0834FF002
:103D2000FF31DEE7D5E90201044BC3E900010120C0
:103D3000FFF756FFEFE700BF0100504C08080020D6
:103D40002DE9F347904602AA4FF0FF330E4642F8A2
:103D5000043D69460093FFF74BFFB8F1000F46D0D2
:103D6000D8F80830002B42D005B2002D3FD100F02A
:103D70003FF98146702000F08FF9D8F80440B4FB79
:103D8000F9F309FB134302250746DDF800A0A3B1B0
:103D90001849D1E90001002332198B4208BF824241
:103DA0000BD3204600F078F9D8F80030984204D8B8
:103DB000D8F8040000F070F90446B4FBF9F309FBED
:103DC000134383B95644F119B1FBF9F309FB1313FB
:103DD0004BB92246D8F8080000F0C4F818B90546D7
:103DE0000220FFF7FDFE284602B0BDE8F08702255D
:103DF000F9E700BF0808002008B50320FFF7F0FE30
:103E0000002008BD73B5154602AA4FF0FF330E46D9
:103E100042F8043D69460093FFF7EAFEB5B1AB688E
:103E2000A3B104B294B970206C6800F035F9009920
:103E3000314401442246A86800F0D2F830B9044663
:103E40000420FFF7CDFE204602B070BD0224FAE741
:103E500008B50520FFF7C4FE002008BD70B59EB070
:103E60001EAA4FF0FF330E4642F8743D6946009398
:103E7000FFF7BEFE044605B2AEB1A5B970222946D1
:103E800002A800F031FD7022009902A800F0A8F805
:103E900048B9314602A8FFF7E8FD05B2044615B956
:103EA0000720FFF79DFE65F30F0420461EB070BD8E
:103EB000F0B505469FB018B9022420461FB0F0BDEA
:103EC000002308224FF4004168460093019300F05C
:103ED00087F804240646D8B96846FFF763FD07460D
:103EE0000DEB0400FFF75EFD022811D10F4B70228D
:103EF0009F4208BF0024314602A800F0F5FC3CB9FF
:103F000070224FF4004102A800F06AF838B104248E
:103F100023B2002BD1D10620FFF762FECDE7294660
:103F200002A8FFF7A2FD0446F2E700BFD4B3515A3E
:103F300008B540B14422002100F0D6FC0820FFF76C
:103F40004FFE002008BD022008BD00000148FDF71B
:103F5000E9BA00BF100800200148FDF701BB00BF0F
:103F6000100800202DE9F8430E461746804618B980
:103F70004FF0FF30BDE8F8831848FDF76DFB0446AD
:103F80001648FDF74FFBB44204EB0002F0D8F319DA
:103F90009A42EDD3B842EBD31048FDF75BFBB6FB7A
:103FA000F0F300FB13630546002BE1D1B7FBF0F4FF
:103FB00000FB1474002CDBD1DFF820902046BC42BB
:103FC00000D208B1BDE8F88308EB0402A1192B4622
:103FD0004846FDF7EBFA2C44F1E700BF100800203B
:103FE000134602460148FCF710BB00BF1008002032
:103FF0000148FDF72FBB00BF100800200146014813
:10400000FDF718BB10080020F8B505460E480E460F
:10401000FDF722FB04460C48FDF704FB2044A842B0
:1040200011D9AC420ED2084F21463846FDF702FBAB
:104030002044854204D836B1854218BF2046F8BDD9
:104040000446F1E72046F8BD10080020F8B50E46FA
:1040500001210446FFF7D8FF00210546A019FFF70C
:10406000D3FFAC42074611D10A4E0025BC4200D214
:104070000DB12846F8BD21463046FDF773FA2146BA
:1040800005463046FDF7D6FA0444EFE74FF0FF351A
:10409000EFE700BF1008002010B504460548FDF703
:1040A000D9FA24B1013CB4FBF0F404FB000420462F
:1040B00010BD00BF1008002008B5FFF747FFB0FA99
:1040C00080F0400908BDFFF747BF000010B580B180
:1040D000094C4FF0FF332360FFF768FD00B240B991
:1040E0002068421C01D130BFFDE7831F5842584170
:1040F00010BD002010BD00BF1C0300202DE9F041C1
:104100000446A4B018B9012024B0BDE8F081FFF73F
:10411000DDFF0028F7D0D4E9022313433FD009A8DC
:10412000FCF7A2F8002109A8FCF7F8F820220021EA
:1041300001A800F0D9FB1B4FA5684FF00008C5B1DE
:10414000B8F1000F15D1A168B5F5804F2E4601F5E5
:10415000044128BF4FF48046491B32463846FFF7DA
:104160003FFF32468046394609A8FCF7B6F9AD1B39
:10417000E5E701A909A8FCF746FA103409A8FCF7FD
:1041800077F8202201A9204600F07AFB0028BBD056
:10419000204600F05DF901A800F05AF9B3E70220CB
:1041A000B2E700BF9108002070B5054604464618E6
:1041B000B44204D22046FFF721FF0444F8E7601B15
:1041C00070BD000038B5702105464FF40040FFF780
:1041D000EBFF00F50043B3F5044F04460BD2134840
:1041E00000F010F921464FF40040FFF72FFF90B97F
:1041F0004FF4044403E005F580654FF4004429467C
:104200002046FFF7D1FF2044B0F5002F07D82946FC
:104210002046FFF71BFFB0FA80F0400938BD044884
:1042200000F0F0F84FF0FF30F5E700BF685B0000EA
:10423000A35B000030B5054685B0002838D0FFF7F5
:10424000D7FE702100F16F04B4FBF0F444434FF447
:104250000040FFF7A9FFB4F5804F04D9164800F0DD
:10426000D1F830BFFDE7844204D9134800F0CAF802
:1042700030BFFDE72246FF21104800F035FB104A11
:1042800007CA01AB83E8070019462846FFF724FC5C
:1042900000B268B9029B702B0AD122464FF400414C
:1042A0000648FFF75FFEB0FA80F0400905B030BD68
:1042B0004FF0FF30F7E700BFA55C00009108002039
:1042C0005C5B00002DE9F04F824685B00E46002968
:1042D0005DD0FFF78DFE4FF40444B4FBF0F444438B
:1042E000D4F50444054604D02A4800F08BF830BFCA
:1042F000FDE7294B0393294F4FF48043B3FBF0F3C1
:104300004343019301204FF0FF3BD6E902234FF0D6
:104310000009994508BF944236D2002834D001994B
:10432000C7F800B0121B084663EB0903002199424D
:1043300008BF904238BF02460292214601AA504669
:10434000FFF728FC00B220B93B68013301D130BF30
:10435000FDE73B68042B13D1029B8BB103F1FF38BF
:10436000A844B8FBF5F805FB08F804F504414246FB
:104370000398FFF7F7FDB0FA80F040094444C4E722
:10438000074800F03FF8002005B0BDE8F08F084670
:10439000FAE700BFA55C0000910800201C03002084
:1043A000105C000038B50C460546124800F02AF8AB
:1043B000A068FFF707FF08B9002038BD0E4800F0DD
:1043C00021F82046FFF736FF0028F5D00B4800F013
:1043D00019F821462846FFF775FF0028ECD0084859
:1043E00000F010F82046FFF789FEB0FA80F040098F
:1043F00038BD00BF375C0000595C00006F5C0000F6
:10440000895C000038B50D4B1A7804465AB1002279
:104410001A7006210A480822FDF7A6FD4FF4E13183
:104420000748FDF785FE064D013C14F8011F01B950
:1044300038BD2846FDF738FFF7E700BF200300200E
:1044400014080020014B1860704700BF1C030020B7
:104450007047000038B5194B194C1B6C082000F050
:10446000AFF9184B1860012000F0AAF92060164837
:10447000FFF7C8FF1548FFF77BFB1548FFF77EFBEA
:1044800000B278B11348FFF7BDFF4FF40440FCF7CA
:1044900015FB23680BB100221A700F48FFF7B2FF1B
:1044A000002038BDFFF708FE0028EBD000F086F8AA
:1044B0000546FFF708FE002DEBD0E3E7B85C0000EF
:1044C0008008002084080020FC5C0000305B0000B5
:1044D00045440000105D00001F5D00002DE9F04F15
:1044E00082469FB00C4600295DD0304BDFF8C88073
:1044F00093E807008DE8070003A8FBF7B5FE00214D
:1045000003A8FBF70BFFE94600254FF0FF3BD4E97A
:10451000022300279F4208BF95422AD2521B0098CF
:10452000C8F800B04FF0000163EB0703994208BFE1
:10453000904238BF0246019229464A465046FFF74C
:1045400029FB00B228B9D8F80030013301D130BFBF
:10455000FDE7D8F80030042B08D1019A32B1029956
:1045600003A8FBF7BAFF019B1D44D0E71048FFF7F3
:1045700049FF104903A8FCF746F8103403A8FBF7DD
:1045800077FE20220B49204600F07AF948B12046F8
:10459000FFF75EFF0748FFF75BFF00201FB0BDE895
:1045A000F08F0120FAE70846F8E700BF405D000001
:1045B000105C0000910800201C0300202DE9F0434E
:1045C000A5B048220021684600F08EF9482200215B
:1045D0000DEB0200554E00F087F912A8FFF78EFD93
:1045E000356825B1524C2168002940F0938060B1B4
:1045F000022823D04F4822E0C5E9008900230B7030
:1046000023681B78C0B9022B1FDC16A8FFF720FF18
:10461000DDE91223CDE900230124474D4FF0FF339C
:1046200012A900202B60FFF7CDFA00B278B92B68F1
:1046300001330CD130BFFDE7022804D13F48FFF71A
:10464000E1FE0024E9E7022BD4DD3D48F7E72B68C3
:10465000072B59D13368DDE91267002B48D0D3E925
:104660000023BB420ABFB24201230023DDE900015F
:10467000B94208BFB04245D2DDE9140150EA010257
:1046800040D00BB9002C3DD112A90020FFF726FF26
:10469000002835D016A8FFF7DBFEDDE914232948F2
:1046A0000021994208BF904224D3DDE9120116ACE3
:1046B000CDE90001CDE902230FCC04AD0FC594E88C
:1046C0000F0085E80F001EAB0FCB0CAC84E80F0089
:1046D0001D48FFF797FE69460020FFF763FE04467A
:1046E000A0B11A48FFF78EFE204625B0BDE8F08342
:1046F0000123BBE71648FFF785FE4CB11548F1E7EB
:104700001548F8E71548F6E71548F4E71548E9E7CE
:104710001548E7E7DDE91289D5E900234B4508BFD5
:1047200042457FF469AF0B78013368E784080020C5
:10473000800800209E5D00001C0300204C5D0000EE
:10474000735D0000007C0700CE5D0000575E000036
:10475000EE5D00009D5E0000075E00002D5E000023
:10476000455E00007D5E0000C15E0000014B1868E0
:10477000704700BF2403002070B50D4E0D4CA41BE4
:10478000A4100025A54209D10B4E0C4C00F066FE8A
:10479000A41BA4100025A54205D170BD56F82530F4
:1047A00098470135EEE756F8253098470135F2E78E
:1047B0008803002088030020880300209003002045
:1047C000024B01461868FCF773B900BF24030020B0
:1047D000024B01461868FCF76FB900BF24030020A4
:1047E00001F0FF01102A2BDB10F0070F08D010F8A2
:1047F000013B013A8B422DD010F0070F42B3F6D1A6
:10480000F0B441EA012141EA014122F007047FF0BE
:1048100000070023F0E80256083C85EA010586EA15
:10482000010685FA47F5A3FA87F586FA47F6A5FA51
:1048300087F68EB9EED1F0BC01F0FF0102F007025D
:1048400032B110F8013B013A83EA010313B1F8D108
:104850000020704701387047002D06BF35460338E9
:10486000073815F0010F07D1013015F4807F02BF22
:10487000013015F4C03F0130F0BC0138704700BF73
:1048800010B501390244904201D1002010BD10F84A
:10489000013B11F8014FA342F5D0181B10BD10B514
:1048A000431E0A44914200D110BD11F8014B03F898
:1048B000014FF7E7884210B501EB020303D8421E0F
:1048C00099420CD110BD9842F9D28118D21AD34224
:1048D00000D110BD13F8014D01F8014DF7E711F8B3
:1048E000014B02F8014FEBE702440346934200D12B
:1048F000704703F8011BF9E738B50546002945D094
:1049000051F8043C0C1F002BB8BFE418FCF7E2FB85
:104910001F4A1368104633B9636014602846BDE827
:104920003840FCF7DBBBA3420CD9216862189342E4
:1049300004BF1A685B68636004BF52182260046099
:10494000ECE713465A680AB1A242FAD91968581816
:10495000A0420BD120680144581882421960DDD171
:10496000106852685A6001441960D7E702D90C23D5
:104970002B60D3E7206821188A4204BF116852686F
:10498000626004BF091821605C60C7E738BD00BFE2
:104990008808002070B5CD1C25F0030508350C2DC6
:1049A00038BF0C25002D064601DBA94203D90C2394
:1049B0003360002070BDFCF78DFB234A146821464C
:1049C00091B9224C23681BB9304600F0FDF92060F4
:1049D0002946304600F0F8F9431C26D10C233360F9
:1049E0003046FCF77BFBE4E70B685B1B1AD40B2B10
:1049F0000FD90B60CD50CC183046FCF76FFB04F19B
:104A00000B00231D20F00700C31A1BD05A42E250AE
:104A100070BD8C420DBF63684B686360136018BF44
:104A20000C46E9E70C464968CAE7C41C24F00304B5
:104A3000A04205D0211A304600F0C6F90130CDD091
:104A40002560D9E770BD00BF880800208C080020D1
:104A5000F8B5074614460E4621B91146BDE8F840A0
:104A6000FCF726B822B9FCF727F825462846F8BDFA
:104A700000F0FCF984420FD921463846FCF718F8BB
:104A800005460028F2D031462246FFF708FF31469E
:104A90003846FCF711F8E9E73546E7E72DE9F04736
:104AA00091461F468A680B69DDF820809342B8BFA3
:104AB0001346C9F8003091F8432006460C4612B15F
:104AC0000133C9F800302368990642BFD9F8003095
:104AD0000233C9F80030256815F0060507D104F146
:104AE000190AE368D9F800209B1A9D4229DB94F843
:104AF00043302268003318BF012392062ED404F1FC
:104B0000430239463046C047013021D02368E5686A
:104B1000D9F8002003F00603042B08BFAD1AA368E0
:104B200022690CBF25EAE57500259342C4BF9B1A94
:104B3000ED184FF000091A344D451BD10020BDE897
:104B4000F0870123524639463046C047013003D131
:104B50004FF0FF30BDE8F0870135C2E7E1185A1C7D
:104B6000302081F84300224494F8451082F8431025
:104B70000233C4E70123224639463046C04701309C
:104B8000E6D009F10109D7E72DE9F04317460A7E7F
:104B900085B06E2A984606460C460C9B01F1430EE2
:104BA00000F0BC801AD8632A2ED00AD8002A00F060
:104BB000C880582A00F08A8004F1420584F8422017
:104BC0002AE0642A01D0692AF6D121681A6811F016
:104BD000800F23D0111D1960136827E0732A00F09D
:104BE000B48008D86F2A2AD0702AE5D10A6842F02A
:104BF00020020A6003E0752A21D0782ADCD17822CD
:104C000084F845206E4964E01A6801F14205111DDF
:104C10001960136884F842300123A3E011F0400FBB
:104C200002F104011960D7D0B2F90030002B03DA89
:104C30002D225B4284F8432062490A2217E0206853
:104C4000196810F0800F03D0081D18600B6806E08B
:104C500010F0400F01F104001860F7D00B8859499B
:104C60006F2A14BF0A220822002084F843006568D6
:104C7000A560002DC0F29C80206820F00400206018
:104C8000002B3FD1002D40F095807546082A0BD1AE
:104C90002368DA0708D5236962689A42DEBF3023A9
:104CA00005F8013C05F1FF35AEEB05032361CDF8B6
:104CB00000803B4603AA21463046FFF7EFFE013055
:104CC00055D14FF0FF3005B0BDE8F08381F84520A5
:104CD0003C492268186812F0800F00F104051D603D
:104CE00001D0036802E05506FBD50388D00744BF16
:104CF00042F0200222601BB9226822F020022260CA
:104D00001022B1E77546B3FBF2F002FB1033CB5C27
:104D100005F8013D03460028F5D1B7E708681A6891
:104D2000496910F0800F04D0101D186013681960D5
:104D300007E010F0400F02F1040018601368F6D08D
:104D40001980002323617546B1E71A68111D1960A7
:104D50001568626800212846FFF742FD08B1401B34
:104D6000606063682361002384F843309FE7236910
:104D70002A4639463046C0470130A2D023689B07F7
:104D800007D5002504F11909E368039A9B1A9D428F
:104D900005DBE068039B9842B8BF184693E7012300
:104DA0004A4639463046C04701308AD00135EBE7E4
:104DB000002BA7D10B7884F8423004F1420565E757
:104DC000555F0000445F000038B5064C00230546DF
:104DD00008462360FCF75AF9431C02D1236803B14B
:104DE0002B6038BD94480020034613F8012B002A9D
:104DF000FBD1181A0138704730B5141E05469BB018
:104E0000184605DA8B232B604FF0FF301BB030BD06
:104E10004FF40273ADF80C3014BF04F1FF33234696
:104E2000029305934FF6FF7300910491ADF80E3095
:104E300002461E9B6946284600F07CF8431CBCBF16
:104E40008B232B60002CE1D0009B00221A70DDE741
:104E500007B5009313460A46014603480068FFF76A
:104E6000CBFF03B05DF804FB2403002051F8040CD1
:104E70000028A0F10400BCBF0B58C01870472DE9F2
:104E8000F0478E689E4282460C469146984635D839
:104E90008A8912F4906F31D0256809696F1A6569A3
:104EA000022305EB450595FBF3F508F101033B44AF
:104EB0009D4238BF1D46530531D52946FBF7F8FD05
:104EC000064650B90C23CAF80030A38943F04003CA
:104ED000A3814FF0FF30BDE8F0873A462169FFF724
:104EE000DEFCA38923F4906343F08003A381266151
:104EF00065613E44ED1B2660A5604646464528BFD9
:104F00004646324649462068FFF7D4FCA3689B1BFF
:104F1000A36023681E4426600020BDE8F0872A466F
:104F2000FBF7C8FD06460028E1D121695046FBF792
:104F3000C3FDC7E72DE9F04F9DB0804603938B89F1
:104F40001C060D4616460FD50B696BB94021FBF7C1
:104F5000AFFD2860286128B90C23C8F800304FF055
:104F6000FF30C5E040236B610023099320238DF8B7
:104F7000293030238DF82A304FF0010B37463C465C
:104F800014F8013B002B3CD1B7EB060A0BD053467B
:104F9000324629464046FFF772FF013000F0A380F9
:104FA000099B534409933B78002B00F09C8000231D
:104FB0004FF0FF3204930793059206938DF8533018
:104FC0001A93052221785048FFF70AFC671C049BBE
:104FD000D8B9D90644BF20228DF853201A0744BF00
:104FE0002B228DF8532022782A2A16D0079A0021E6
:104FF0000A20274601343B78303B092B51D9C9B1EF
:1050000011E0252BC0D02746B9E73F4A801A0BFA9A
:1050100000F0184304903C46D3E7039A111D126830
:105020000391002A01DB079204E0524243F002039D
:10503000079204933B782E2B0ED17B782A2B07F115
:10504000010132D1039B1A1D1B680392002BB8BFCC
:105050004FF0FF33023705932C4C3978032220465A
:10506000FFF7BEFB38B14023001B03FA00F0049B9E
:10507000034304930137397825488DF82810062218
:105080007E1CFFF7ADFB002835D0224BFBB9039BFC
:10509000073323F0070308330393099B4B44099319
:1050A0006CE700FB02320121A3E7002305931846B9
:1050B0000A240F4601313A78303A092A03D9002BE5
:1050C000CAD00590C8E704FB00200123F1E703AB39
:1050D00000932A46104B04A94046AFF30080B0F17C
:1050E000FF3F8146D9D1AB895B063FF538AF0998C0
:1050F0001DB0BDE8F08F03AB00932A46064B04A910
:105100004046FFF741FDEAE7665F00006C5F000084
:10511000705F0000000000007F4E0000D0400B1CBC
:10512000D1409C46203AD3401843524263469340B4
:10513000184370479140031C90409C46203A93408E
:10514000194352426346D3401943704753B94AB991
:10515000002908BF00281CBF4FF0FF314FF0FF307F
:1051600000F07AB9ADF1080C6DE904CE00F006F854
:10517000DDF804E0DDE9022304B070472DE9F047D3
:105180008C460D460446089E002B51D18A42174694
:105190006DD9B2FA82FEBEF1000F0BD0CEF1200C19
:1051A00001FA0EF520FA0CFC02FA0EF74CEA050C97
:1051B00000FA0EF44FEA174A250CBCFBFAF81FFA66
:1051C00087F90AFB18CC45EA0C4508FB09F3AB420A
:1051D0000AD9ED1908F1FF3280F02381AB4240F289
:1051E0002081A8F102083D44ED1AA4B2B5FBFAF003
:1051F0000AFB105544EA054400FB09F9A14509D909
:10520000E41900F1FF3380F00A81A14540F20781E3
:1052100002383C44A4EB090440EA08400021002E77
:1052200061D024FA0EF4002334607360BDE8F08787
:105230008B4207D9002E54D0002186E82100084671
:10524000BDE8F087B3FA83F1002940F08E80AB42CD
:1052500002D3824200F2FA80841A65EB0305012032
:10526000AC46002E3FD086E81010BDE8F08712B99A
:105270000127B7FBF2F7B7FA87FEBEF1000F34D172
:10528000EB1B3A0C1FFA87FC0121B3FBF2F8250C4B
:1052900002FB183345EA03450CFB08F3AB4207D980
:1052A000ED1908F1FF3002D2AB4200F2D180804606
:1052B000ED1AA3B2B5FBF2F002FB105543EA054428
:1052C0000CFB00FCA44507D9E41900F1FF3302D21E
:1052D000A44500F2B8801846A4EB0C0440EA08404C
:1052E0009DE731463046BDE8F087CEF1200405FA4F
:1052F0000EF307FA0EF720FA04F83A0C25FA04F434
:1053000048EA0308B4FBF2F14FEA184502FB1144E6
:105310001FFA87FC45EA044501FB0CF3AB4200FA97
:105320000EF409D9ED1901F1FF3080F08A80AB420B
:1053300040F2878002393D44EB1A1FFA88F5B3FB2F
:10534000F2F002FB103345EA034500FB0CF3AB42DD
:1053500007D9ED1900F1FF386FD2AB426DD9023891
:105360003D44EB1A40EA01418FE7C1F1200722FAE0
:1053700007F88B4005FA01F448EA030320FA07FE18
:105380004FEA134CFD404EEA040EB5FBFCF94FEA20
:105390001E440CFB19551FFA83F844EA054509FB26
:1053A00008F4AC4202FA01F200FA01FA08D9ED1849
:1053B00009F1FF3043D2AC4241D9A9F102091D44A1
:1053C0002D1B1FFA8EFEB5FBFCF00CFB10554EEAB0
:1053D000054400FB08F8A04507D9E41800F1FF35A3
:1053E00029D2A04527D902381C4440EA0940A4EB41
:1053F0000804A0FB02894C45C6464D4615D312D081
:1054000056B1BAEB0E0364EB050404FA07F7CB4080
:105410001F43CC40376074600021BDE8F087184618
:10542000F8E69046E0E6C245EAD2B8EB020E69EB38
:1054300003050138E4E72846D7E7404691E781466F
:10544000BEE7014678E702383C4445E7084608E7EE
:10545000A8F102083D442BE7704700BFF8B500BF34
:10546000F8BC08BC9E467047F8B500BFF8BC08BC45
:105470009E467047982F8A4291443771CFFBC0B542
:10548000A5DBB5E95BC25639F111F159A4823F920F
:10549000D55E1CAB98AA07D8015B8312BE85312468
:1054A000C37D0C55745DBE72FEB1DE80A706DC9B29
:1054B00074F19BC1C1699BE48647BEEFC69DC10FD5
:1054C000CCA10C246F2CE92DAA84744ADCA9B05C11
:1054D000DA88F97652513E986DC631A8C82703B0D4
:1054E000C77F59BFF30BE0C64791A7D55163CA06E2
:1054F00067292914850AB72738211B2EFC6D2C4DEE
:10550000130D385354730A65BB0A6A762EC9C281DB
:10551000852C7292A1E8BFA24B661AA8708B4BC271
:10552000A3516CC719E892D1240699D685350EF49B
:1055300070A06A1016C1A419086C371E4C77482752
:10554000B5BCB034B30C1C394AAAD84E4FCA9C5BC8
:10555000F36F2E68EE828F746F63A5781478C88419
:105560000802C78CFAFFBE90EB6C50A4F7A3F9BEFB
:10557000F27871C62E2F6D6265642D6F732F746182
:1055800072676574732F5441524745545F4E4F52B2
:105590004449432F5441524745545F4E5246357853
:1055A0002F6770696F5F6F626A6563742E68006F42
:1055B000626A2D3E70696E20213D202850696E4E32
:1055C000616D65294E43005469636B657220667294
:1055D000657175656E6379206973207A65726F00F5
:1055E0005469636B6572206E756D626572206F66BB
:1055F0002062697420697320677265617465722026
:105600007468616E203332206F72206C6573732072
:105610007468616E20342062697473002E2F6D628D
:1056200065642D6F732F68616C2F6D6265645F74A4
:1056300069636B65725F6170692E63006D6174638D
:10564000685F7469636B20213D2071756575652DF8
:105650003E7469636B5F6C6173745F726561640053
:1056600068560000E0030020750A00004D24000089
:10567000A9240000B92400005D2400009924000042
:10568000650A0000A1230000000000002E2E2E0A53
:10569000002E2F6D6265642D6F732F706C617466C0
:1056A0006F726D2F736F757263652F6D6265645FC6
:1056B000637269746963616C2E63006372697469F3
:1056C00063616C5F73656374696F6E5F7265656E4D
:1056D0007472616E63795F636F756E746572203C7E
:1056E0002055494E5433325F4D4158000A3D2053F6
:1056F000797374656D2077696C6C206265207265C2
:10570000626F6F7465642064756520746F2061201A
:10571000666174616C206572726F72203D0A003D93
:10572000205265626F6F7420636F756E74283D251B
:105730006C69292072656163686564206D617869B0
:105740006D756D2C2073797374656D2077696C6C41
:105750002068616C74206166746572207265626F86
:105760006F74696E67203D0A000A0A2B2B204D6278
:1057700065644F53204572726F7220496E666F20C8
:105780002B2B0A4572726F72205374617475733AD1
:10579000203078255820436F64653A202564204DD9
:1057A0006F64756C653A2025640A4572726F7220C9
:1057B0004D6573736167653A20004B65726E656C69
:1057C000204572726F723A203078256C582C200078
:1057D0005468726561643A203078256C582C20003A
:1057E0004D757465783A203078256C582C2000531C
:1057F000656D6170686F72653A203078256C582C41
:1058000020004D656D6F7279506F6F6C3A20307863
:10581000256C582C20004576656E74466C61677364
:105820003A203078256C582C200054696D65723A06
:10583000203078256C582C20004D657373616765A6
:1058400051756575653A203078256C582C200041DB
:105850007373657274696F6E206661696C65643A12
:1058600020000A4C6F636174696F6E3A20307825AE
:105870006C58000A46696C653A20002B2564000AC2
:105880004572726F722056616C75653A20307825CA
:105890006C58000A466F72206D6F726520696E66E3
:1058A0006F2C2076697369743A2068747470733A47
:1058B0002F2F6D6265642E636F6D2F732F6572726B
:1058C0006F723F6572726F723D307825303858269E
:1058D0007467743D4E524635323834305F444B0065
:1058E0000A2D2D204D6265644F53204572726F72F0
:1058F00020496E666F202D2D0A0000000000000078
:1059000000000000D50F00002D100000391000002D
:10591000D90F0000C10F0000D10F00003B020000B2
:10592000CD0F00003F02000049020000C70F000039
:10593000050200000B020000110200001702000027
:105940001D020000290200002D02000033020000A9
:10595000FD0F0000390200000000000006000000FA
:10596000000000000800000000000000010000002E
:105970004F70657261746F72206E65775B5D206F2A
:105980007574206F66206D656D6F72790D0A002E3B
:105990002F6D6265642D6F732F706C6174666F720A
:1059A0006D2F736F757263652F6D6265645F7265CD
:1059B0007461726765742E63707000286775617218
:1059C000642026204358415F47554152445F4D4172
:1059D000534B29203D3D20300028677561726420BB
:1059E00026204358415F47554152445F4D41534B38
:1059F00029203D3D204358415F47554152445F496E
:105A00004E49545F494E5F50524F475245535300E1
:105A1000FFFF0000FFFFFFFF2E2F6D6265642D6FFB
:105A2000732F746172676574732F544152474554E4
:105A30005F4E4F524449432F5441524745545F4EA5
:105A4000524635782F5441524745545F4E524635A1
:105A5000322F6770696F5F6170692E630028756906
:105A60006E7433325F742970696E203C2047504950
:105A70004F5F50494E5F434F554E54000101012E78
:105A80002F6D6265642D6F732F7461726765747317
:105A90002F5441524745545F4E4F524449432F546F
:105AA00041524745545F4E524635782F5441524734
:105AB00045545F4E524635322F73657269616C5F93
:105AC0006170692E63006F626A00726574203D3DEB
:105AD000204E52465F535543434553530000000048
